S01000007A6164616E6965332E7372656305
S11300000C9434000C9446000C9446000C94460066
S11300100C9446000C9446000C9446000C94460044
S11300200C9446000C9446000C9497000C944600E3
S11300300C9446000C9446000C9446000C94460024
S11300400C9446000C9446000C9446000C94460014
S11300500C9446000C9446000C9446000C94460004
S11300600C9446000C94460011241FBECFEFD8E038
S1130070DEBFCDBF21E0A0E0B1E001C01D92A930F8
S1130080B207E1F70E941D020C94DE030C940000F9
S113009087E690E09093C5008093C4001092C0005E
S11300A088E18093C10086E08093C2000895909116
S11300B0C00095FFFCCF8093C60080E090E00895D7
S11300C080E480937C0083E080937E00EAE7F0E0A4
S11300D087E08083808180688083089580E094E055
S11300E0909387008093860080E88093800082E16B
S11300F08093810080E280936F00219A089590910B
S11301007C00907F90937C0090917C00892B80935D
S11301107C0080917A00806480937A0080917A00D8
S113012086FDFCCF809178009091790008951F920C
S11301300F920FB60F9211242F933F938F939F9397
S1130140AF93BF9380917C00807F80937C008091EB
S11301507C00816080937C0080917A00806480932D
S11301607A0080917A0086FDFCCF8091780090918E
S113017079002FEF33E0281B390B80910501909112
S11301800601A0910701B0910801820F931FA11DE0
S1130190B11D8093050190930601A0930701B093CC
S11301A008018091010190910201909304018093D0
S11301B0030180917C00807F80937C0080917C008F
S11301C080937C0080917A00806480937A0080918F
S11301D07A0086FDFCCF809178009091790090930D
S11301E0020180930101809100018F5F80930001DF
S11301F0BF91AF919F918F913F912F910F900FBE1F
S11302000F901F901895BC0143E0942F990F990FFC
S11302109B0102C0369527959A95E2F72F702A30F4
S1130220C4F4205D9091C00095FFFCCF2093C600DC
S1130230415058F78091C00085FFFCCF8DE080933A
S1130240C6008091C00085FFFCCF8AE08093C60081
S11302500895295C9091C00095FFFCCF2093C600BF
S1130260415098F6E7CFCF93DF93FB01E9011A825F
S11302701B821C821D82198218829F838E83798738
S113028068875B874A87BC016F5F7F4F8FEF93E07E
S11302900E9453037D876C879F012F5F3F4F032E7E
S11302A0000C440B550B6FEF7FEF8FEF9FE30E9421
S11302B067032E873F87488B598BDF91CF91089531
S11302C0CF92DF92EF92FF92CF93DF93EB01FA018B
S11302D0AC01461B570B84859585841795077CF0E4
S11302E0919581959109481759070CF08EC0CC243B
S11302F0C3943CEFD32EEE24EA94FE2C06C0CC2407
S1130300CA9463E0D62EE12CF12C052E000C660B6A
S1130310770B82819381A481B5819A01AB01280F67
S1130320391F4A1F5B1F86859785A089B18982176B
S11303309307A407B5070CF04AC082839383A48370
S1130340B5836FEF7FEF8FEF9FE3208131812C1B0B
S11303503D0BA285B3852A9FA0012B9F500D3A9F88
S1130360500D1124D183C083DC01CB018C0D9D1D64
S1130370AE1DBF1D052E000C660B770B840F951F59
S1130380A61FB71FB7FD4FC023E0B595A795979556
S113039087952A95D1F781302CEF92072FEFA2078A
S11303A0B20724F481E09CEFAFEFBFEF811524E0A6
S11303B09207A105B10524F08FEF93E0A0E0B0E02F
S11303C0DF91CF91FF90EF90DF90CF900895B0959B
S11303D0A095909581959F4FAF4FBF4F2817390730
S11303E04A075B074CF482839383A483B58361E05B
S11303F070E080E090ECA9CF22833383448355835B
S1130400A085B1850E948603A0CF86819781489FED
S11304106001499FD00C589FD00C11240D2C000C66
S1130420EE08FF0872CF0796A11DB11DADCFFC01E8
S113043012821382148215820895CF93DF93CDB76D
S1130440DEB762970FB6F894DEBF0FBECDBF87E666
S113045090E09093C5008093C4001092C00088E19E
S11304608093C10086E08093C20080E480937C0086
S113047083E080937E0087E080937A0080917A0005
S1130480806880937A0080E094E090938700809362
S1130490860080E88093800082E18093810080E27E
S11304A080936F00219A9E012F5F3F4F40E050E000
S11304B061E070E081E090E00E943301789400E014
S11304C010E08DE0E82E9AE0F92E809100018F3F34
S11304D0E1F7F8942091000130E040E050E06091B1
S11304E005017091060180910701909108010E9415
S11304F06703CA01B90120930501309306014093B3
S1130500070150930801AE014F5F5F4F80910301D3
S1130510909104010E946001080F191F17FDC0C0CB
S11305208091C00085FFFCCFE092C6008091C0009E
S113053085FFFCCFF092C600409103015091040165
S113054023E0822F880F880FBA0102C07695679541
S11305508A95E2F7CB018F708A300CF095C090E356
S1130560980F8091C00085FFFCCF9093C600215066
S113057040F78091C00085FFFCCFE092C6008091D7
S1130580C00085FFFCCFF092C60040910501509158
S1130590060123E0822F880F880FBA0102C07695E6
S11305A067958A95E2F7CB018F708A300CF060C0B2
S11305B090E3980F8091C00085FFFCCF9093C60014
S11305C0215040F78091C00085FFFCCFE092C60027
S11305D08091C00085FFFCCFF092C60023E0822FFB
S11305E0880F880FA80102C0569547958A95E2F7AF
S11305F0CA018F708A3084F590E3980F8091C0000F
S113060085FFFCCF9093C600215048F78091C0002D
S113061085FFFCCFE092C6008091C00085FFFCCF2F
S1130620F092C6008091C00085FFFCCFE092C60026
S11306308091C00085FFFCCFF092C60010920501A6
S1130640109206011092070110920801109389007C
S113065000938800789439CF97E3980F8091C00075
S113066085FFFCCF9093C600215008F0B8CFCECFC1
S113067097E3980F8091C00085FFFCCF9093C6004C
S1130680215008F087CF9ECF97E3980F8091C00048
S113069085FFFCCF9093C600215008F052CF69CF5C
S11306A000E010E03DCF97FB072E16F4009407D02E
S11306B077FD09D00E948E0307FC05D03EF4909587
S11306C081959F4F0895709561957F4F0895052EEC
S11306D097FB1EF400940E947E0357FD07D00E94EE
S11306E0A20307FC03D04EF40C947E03509540956E
S11306F0309521953F4F4F4F5F4F089590958095CA
S1130700709561957F4F8F4F9F4F0895B7FF0C945D
S1130710C4030E94C403821B930B0895AA1BBB1B32
S113072051E107C0AA1FBB1FA617B70710F0A61BED
S1130730B70B881F991F5A95A9F780959095BC010E
S1130740CD010895A1E21A2EAA1BBB1BFD010DC009
S1130750AA1FBB1FEE1FFF1FA217B307E407F5076D
S113076020F0A21BB30BE40BF50B661F771F881F49
S1130770991F1A9469F760957095809590959B01DF
S1130780AC01BD01CF0108950E94CF03A59F900D38
S1130790B49F900DA49F800D911D11240895A29FD4
S11307A0B001B39FC001A39F700D811D1124911D41
S11307B0B29F700D811D1124911D0895F894FFCFEF
S9030000FC
