:100000000C9434000C9449000C9449000C94490061
:100010000C9449000C9449000C9449000C9449003C
:100020000C9449000C9449000C9449000C9449002C
:100030000C9449000C9449000C9449000C9449001C
:100040000C9449000C9449000C9449000C9449000C
:100050000C9449000C9449000C9449000C944900FC
:100060000C9449000C94490011241FBECFEFD8E036
:10007000DEBFCDBF11E0A0E0B1E0E4E3F1E002C0FB
:1000800005900D92AA30B107D9F70E944B000C944D
:1000900098000C940000CF93DF93CDB7DEB72A977A
:1000A0000FB6F894DEBF0FBECDBF8091C100877E32
:1000B0008093C1008AB18FEF8AB987B1836087B915
:1000C0008AE0E0E0F1E0DE01119601900D928A9560
:1000D000E1F730E020E084E6A1E0B0E0AC0FBD1F26
:1000E000A20FB11D41E050E04C0F5D1F430F511DA9
:1000F0004098419A9C919BB9EFE1FEE43197F1F76A
:1001000000C000004198409AFA0190819BB9EFE14C
:10011000FEE43197F1F700C00000815049F72F5FEE
:100120002A3010F03F5F20E03A30A8F230E0D3CF21
:04013000F894FFCF71
:0A013400C0F9A4B0999282F88090FF
:00000001FF
