S01000007A6164616E6965322E7372656306
S11300000C943A000C9457000C9457000C9457002D
S11300100C9457000C9457000C9457000C94570000
S11300200C9457000C9457000C9457000C945700F0
S11300300C9457000C9457000C9457000C945700E0
S11300400C9457000C9457000C94AE000C94D900F7
S11300500C9457000C9457000C9457000C945700C0
S11300600C9457000C9457006364696E6F70737539
S113007078585B0011241FBECFEFD8E0DEBFCDBFA0
S113008011E0A0E0B1E0E2E7F3E102C005900D92D7
S1130090A632B107D9F723E0A6E2B1E001C01D9270
S11300A0A434B207E1F70E9414020C94B7090C942B
S11300B00000F8949091C10090629093C10008C030
S11300C07894EFE9FFE03197F1F700C00000F8946D
S11300D090913D0320913602921B9F3F89F3E0915A
S11300E03D0391E09E0F90933D03F0E0EA5CFE4FE8
S11300F08083789480E090E00895F89490912701AB
S113010080913C03981308C078948FE99FE001978D
S1130110F1F700C00000F1CFE0913C0381E08E0FC5
S113012080933C03F0E0E75CFD4F80817894082ED7
S1130130000C990B089587E690E09093C500809396
S1130140C4001092C000E1ECF0E088E1808380817B
S11301508068808386E08093C20008951F920F9286
S11301600FB60F9211248F939F93EF93FF93809177
S1130170270190913C03891B8F3F71F08091C60049
S1130180833799F0E091270191E09E0F9093270126
S1130190F0E0E75CFD4F8083FF91EF919F918F9199
S11301A00F900FBE0F901F90189581E08093260149
S11301B0F3CF1F920F920FB60F9211248F939F9338
S11301C0EF93FF9390913D03809136029817A9F025
S11301D0E091360281E08E0F80933602F0E0EA5C13
S11301E0FE4F80818093C600FF91EF919F918F9184
S11301F00F900FBE0F901F9018958091C1008F7DB6
S11302008093C100F1CF80EC80937C0081E08093E7
S11302107E00EAE7F0E087E0808380818068808365
S1130220089590917C00907F90937C0090917C0045
S1130230892B80937C0080917A00806480937A007B
S113024080917A0086FDFCCF8091780090917900AE
S11302500895CF93DF93FB01E9011A821B821C826C
S11302601D82198218829F838E83798768875B87B2
S11302704A87BC016F5F7F4F8FEF93E00E941D039D
S11302807D876C879F012F5F3F4F032E000C440B2B
S1130290550B6FEF7FEF8FEF9FE30E9431032E87A3
S11302A03F87488B598BDF91CF910895CF92DF928E
S11302B0EF92FF92CF93DF93EB01FA01AC01461B5F
S11302C0570B84859585841795077CF091958195C6
S11302D09109481759070CF08EC0CC24C3943CEF05
S11302E0D32EEE24EA94FE2C06C0CC24CA9463E0F8
S11302F0D62EE12CF12C052E000C660B770B828197
S11303009381A481B5819A01AB01280F391F4A1F3B
S11303105B1F86859785A089B18982179307A407F7
S1130320B5070CF04AC082839383A483B5836FEF2F
S11303307FEF8FEF9FE3208131812C1B3D0BA28542
S1130340B3852A9FA0012B9F500D3A9F500D112475
S1130350D183C083DC01CB018C0D9D1DAE1DBF1D5F
S1130360052E000C660B770B840F951FA61FB71F75
S1130370B7FD4FC027E0B595A795979587952A9522
S1130380D1F781302CEF92072FEFA207B20724F4A4
S113039081E09CEFAFEFBFEF811524E09207A10548
S11303A0B10524F08FEF93E0A0E0B0E0DF91CF91AE
S11303B0FF90EF90DF90CF900895B095A095909521
S11303C081959F4FAF4FBF4F281739074A075B07E7
S11303D04CF482839383A483B58361E070E080E06E
S11303E090ECA9CF2283338344835583A085B185C0
S11303F00E945F03A0CF86819781489F6001499F37
S1130400D00C589FD00C11240D2C000CEE08FF08C2
S113041072CF81589F4FAF4FBF4FACCFFC011282B8
S11304201382148215820895CF93DF93CDB7DEB77C
S113043062970FB6F894DEBF0FBECDBF87E690E09B
S11304409093C5008093C4001092C00088E180930B
S1130450C1008091C10080688093C10086E08093D0
S1130460C20080EC80937C0081E080937E0087E072
S113047080937A0080917A00806880937A0088E281
S113048091E029E530E030933101209330012DE7EC
S113049030E0309333012093320123E020932B0189
S11304A010923501109234019093430380934203D8
S11304B0909341038093400390933F0380933E03C2
S11304C0259A9E012F5F3F4F40E050E060E070E0CE
S11304D081E090E00E942901F9E3CF2EF3E0DF2EC2
S11304E0A0E0EA2EA1E0FA2E03E011E0F894809156
S11304F02601811195C080917C00807F80937C00CF
S113050080917C0080937C0080917A008064809349
S11305107A0080917A0086FDFCCF809178009091DA
S113052079009093380280933702209137023091FA
S11305303802ACE4B4E00E945003DC01CB012AE0B1
S1130540B695A795979587952A95D1F7BC01645FD1
S11305507140709338026093370260913702709152
S113056038028091390390913A03AE014F5F5F4F97
S11305700E9456019093380280933702809137028B
S1130580909138028091390390913A034091370257
S1130590509138022091370230913802E0913702AD
S11305A0F09138029F938F93ADECBCEC0E94500302
S11305B09695879596958795969587959C01220F94
S11305C0331F880F991F880F991F880F991F820F57
S11305D0931F481B590B5F934F939F010E94500335
S11305E09695879596958795969587959F938F93DE
S11305F01F930F930E94A8032FEF89E698E12150DF
S113060080409040E1F700C000000FB6F894DEBFD0
S11306100FBECDBFF89480912601882309F46BCFD7
S1130620DF92CF92FF92EF920E94BE0310922601B6
S11306300F900F900F900F905ECF97FB072E16F43C
S1130640009407D077FD09D00E94670307FC05D00A
S11306503EF4909581959F4F0895709561957F4FD5
S11306600895052E97FB1EF400940E94480357FD3D
S113067007D00E947B0307FC03D04EF40C9448037C
S113068050954095309521953F4F4F4F5F4F0895BA
S113069090958095709561957F4F8F4F9F4F0895EA
S11306A0A29FB001B39FC001A39F700D811D1124AF
S11306B0911DB29F700D811D1124911D0895B7FFE6
S11306C00C949D030E949D03821B930B0895AA1B07
S11306D0BB1B51E107C0AA1FBB1FA617B70710F029
S11306E0A61BB70B881F991F5A95A9F7809590955B
S11306F0BC01CD010895A1E21A2EAA1BBB1BFD016A
S11307000DC0AA1FBB1FEE1FFF1FA217B307E407EC
S1130710F50720F0A21BB30BE40BF50B661F771F44
S1130720881F991F1A9469F7609570958095909524
S11307309B01AC01BD01CF0108950E945003A59F08
S1130740900DB49F900DA49F800D911D11240895C8
S1130750A0E0B0E0EEEAF3E00C949009AE014B5F48
S11307605F4FFA0161917191AF01809140039091C3
S113077041030E94D403E2E00C94AC09A0E0B0E091
S1130780E4ECF3E00C949009AE014B5F5F4FFA0187
S113079061917191AF0180913E0390913F030E945A
S11307A05107E2E00C94AC09ABE0B0E0EAEDF3E011
S11307B00C9480096C017B018A01FC01178216826A
S11307C0838181FFCCC1CE0101963C01F601938166
S11307D0F70193FD859193FF81917F01882309F4AB
S11307E0BAC1853239F493FD859193FF81917F01DC
S11307F0853229F4B60190E00E94CA08E7CF912C13
S1130800212C312CFFE1F315D8F08B3279F038F438
S1130810803279F08332A1F4232D20611DC08D3202
S113082061F0803369F4232D216016C0832D82602A
S1130830382EE32DE4603E2E2AC0F32DF8601DC04F
S113084037FC2DC020ED280F2A3040F08E32B9F449
S113085036FC81C1232D2064322E19C036FE06C019
S11308608AE0989E200D1124922E11C0EAE02E9E5B
S1130870200D1124222EF32DF0623F2E08C08C3659
S113088021F4832D8068382E02C0883641F4F701A4
S113089093FD859193FF81917F018111B3CF982FAF
S11308A09F7D9554933028F40C5F1F4F9FE39983E9
S11308B00DC0833631F0833771F0833509F059C0A8
S11308C021C0F801808189830E5F1F4F882483949F
S11308D0912C530113C02801F2E04F0E511CF80172
S11308E0A080B18036FE03C0692D70E002C06FEFB6
S11308F07FEFC5010E9481084C018201F32DFF772F
S11309003F2E16C0280122E0420E511CF801A0809F
S1130910B18036FE03C0692D70E002C06FEF7FEF37
S1130920C5010E9476084C01F32DF0683F2E820128
S113093033FC1BC0822D90E088169906B0F4B601F2
S113094080E290E00E94CA082A94F4CFF50137FCB3
S1130950859137FE81915F01B60190E00E94CA083B
S113096021102A9421E0821A91088114910471F7CC
S1130970E8C0843611F0893641F5F80137FE07C026
S113098060817181828193810C5F1F4F08C06081F7
S11309907181072E000C880B990B0E5F1F4FF32DEE
S11309A0FF763F2E97FF09C09095809570956195CD
S11309B07F4F8F4F9F4FF0683F2E2AE030E0A30116
S11309C00E941F09882E861845C0853731F4232DCF
S11309D02F7EB22E2AE030E025C0932D997FB92EC8
S11309E08F36C1F018F4883579F0B5C0803719F026
S11309F0883721F0B0C0E92FE061BE2EB4FE0DC0EF
S1130A00FB2DF460BF2E09C034FE0AC0292F2660D6
S1130A10B22E06C028E030E005C020E130E002C07C
S1130A2020E132E0F801B7FE07C060817181828164
S1130A3093810C5F1F4F06C06081718180E090E05C
S1130A400E5F1F4FA3010E941F09882E8618FB2DDD
S1130A50FF773F2E36FE0DC0232D2E7FA22E891444
S1130A6058F434FE0BC032FC09C0832D8E7EA82EB0
S1130A7005C0B82CA32C03C0B82C01C0B92CA4FE0B
S1130A800FC0FE01E80DF11D8081803321F49A2D01
S1130A90997EA92E09C0A2FE06C0B394B39404C0E3
S1130AA08A2D867809F0B394A3FC11C0A0FE06C079
S1130AB0B21488F4280C922C9B180EC0B21460F463
S1130AC0B60180E290E00E94CA08B394F7CFB21452
S1130AD018F42B1802C0982C212CA4FE10C0B601C7
S1130AE080E390E00E94CA08A2FE17C0A1FC03C0E4
S1130AF088E790E002C088E590E0B6010CC08A2D3A
S1130B00867859F0A1FE02C08BE201C080E2A7FC06
S1130B108DE2B60190E00E94CA08891438F4B60147
S1130B2080E390E00E94CA089A94F7CF8A94F30174
S1130B30E80DF11D8081B60190E00E94CA08811081
S1130B40F5CF222009F442CEB60180E290E00E9463
S1130B50CA082A94F6CFF6018681978102C08FEFE6
S1130B609FEF2B96E2E10C949C0920FD09C0FC0147
S1130B7023FD05C022FF02C0738362835183408337
S1130B80089544FD17C046FD17C0AB01BC01DA014E
S1130B90FB01AA0FBB1FEE1FFF1F1094D1F74A0FD2
S1130BA05B1F6E1F7F1FCB01BA01660F771F881F63
S1130BB0991F09C033E001C034E0660F771F881F16
S1130BC0991F3150D1F7620F711D811D911D089538
S1130BD00F931F93CF93DF938C01C8010E948C085D
S1130BE0EC0197FD08C00E946208892BB1F7B80197
S1130BF0CE010E940609CE01DF91CF911F910F9182
S1130C0008958F929F92AF92BF92EF92FF920F93AB
S1130C101F93CF93DF938C01D62F7A01B22E0E94BB
S1130C208C089C0133272B32310531F02D323105EC
S1130C3061F48B2D8068B82ED15011F480E068C027
S1130C40C8010E948C0897FDF9CFCB2DCD7F2B2DA9
S1130C50207309F58033F9F4AA24AA94AD0E09F49B
S1130C6043C0C8010E948C0897FD3EC09C012F7DA3
S1130C7033272835310549F4C264D250A9F1C8019B
S1130C800E948C0897FF07C02FC0B6FE02C0C26046
S1130C9001C0C261DA2D812C912C540120ED280F62
S1130CA0283080F0C4FF04C0B8010E94060919C0AE
S1130CB02A3040F0C6FFF8CF2F7D3FEE320F36309A
S1130CC098F727504C2FC501B4010E94C1054B0170
S1130CD05C01C260D15059F0C8010E948C0897FF92
S1130CE0DDCFC1FD04C0AACF812C912C5401C7FFD4
S1130CF008C0B094A09490948094811C911CA11C71
S1130D00B11C2C2FB501A401C7010E94B50581E0D7
S1130D10DF91CF911F910F91FF90EF90BF90AF9013
S1130D209F908F900895A0E2B0E0E9E9F6E00C947A
S1130D3083095C01962E7A01F9018E010F5F1F4F22
S1130D40680180E2D8011D928A95E9F7D5011396CE
S1130D508C9080E090E0612C712C30E061E070E0D8
S1130D6083FC259183FE21918F01522E211103C012
S1130D7080E090E092C02E3511F4009751F1432F9A
S1130D8050E0481759073CF42D3559F12D3219F428
S1130D90772009F103C0772009F46AC0452D4695F0
S1130DA046954695D601A40FB11D452D47708B017C
S1130DB002C0000F111F4A95E2F7A8015C91452B70
S1130DC04C93651459F0561410F45394E7CF5A9485
S1130DD0E5CF31E004C07724739401C0712C0196EF
S1130DE0BFCF772019F08E8180628E83311103C0CA
S1130DF08824839417C0F6019E012F5D3F4F8081A4
S1130E00809581932E173F07D1F7F2CFE114F104B7
S1130E1029F0D7018C93F70131967F019A94812CA4
S1130E209920F9F0C5010E948C0897FD18C0FC01B7
S1130E30FF2723E0F595E7952A95E1F7EC0DFD1DD5
S1130E40208130E0AC014770552702C035952795C5
S1130E504A95E2F720FDDACFB5010E940609811018
S1130E6087CFE114F10411F0D7011C92C80115C019
S1130E70422F469546954695D601A40FB11D422FA3
S1130E8047708B0102C0000F111F4A95E2F7A801B9
S1130E905C91452B4C93622EA2CFA096EFE00C946C
S1130EA09F09A0E0B0E0E7E5F7E00C9483096C014A
S1130EB0EB015A01FC0117821682512CF601E380E2
S1130EC0FE01E3FC8591E3FE8191182FEF01882355
S1130ED009F4EEC090E00E946208892B21F0C6015B
S1130EE00E94E805EBCF153241F4FE01E3FC1591B5
S1130EF0E3FE1191EF01153281F4C6010E948C08C2
S1130F0097FDD4C0412F50E09C01332724173507A7
S1130F10A9F2B6010E940609CBC01A3239F4E3FCE7
S1130F201591E3FE1191EF0101E001C000E0F12C05
S1130F3020ED210F2A3080F402606F2D70E080E0F4
S1130F4090E040E20E94C105F62EFE01E3FC1591FB
S1130F50E3FE1191EF01ECCF01FF03C0F11003C0D8
S1130F60A7C0FF24FA94183619F01C3651F010C0AB
S1130F70FE01E3FC1591E3FE1191EF01183641F4F3
S1130F8008600460FE01E3FC1591E3FE1191EF019A
S1130F90112309F48DC0612F70E088E690E00E946F
S1130FA06B08892B09F484C000FD07C0F50180801B
S1130FB09180C50102965C0102C0812C912C1E36E1
S1130FC051F4F6014681578160E070E0202FC4019E
S1130FD00E94B50573CF1336A9F401FD02C0FF24A6
S1130FE0F394C6010E948C0897FD60C0811491049B
S1130FF029F0F4018083C40101964C01FA94F110A4
S1131000F0CF50C01B3559F49E01A4016F2DC601C9
S11310100E949306EC01892B09F044C03EC0C6012E
S11310200E94E80597FD42C01F3661F128F414368A
S113103039F1193651F128C0133771F0153701F120
S113104023C08114910429F0F4016082C401019643
S11310504C01FA94FF2071F0C6010E948C083C01F7
S113106097FD08C00E946208892B59F3B601C30199
S11310700E94060981149104A9F0F401108212C09F
S1131080006203C0006101C00064202FA4016F2D21
S1131090C6010E940106811105C0F6018381807397
S11310A029F406C000FD0ACF539408CF552019F047
S11310B0852D90E002C08FEF9FEFCDB7DEB7EFE054
S11310C00C949F0991110C947D09803219F0895078
S11310D08550C8F70895FC010590061621F00020FC
S11310E0D9F7C00108953197CF010895FC01059007
S11310F0615070400110D8F7809590958E0F9F1F16
S11311000895FC016150704001900110D8F780955A
S113111090958E0F9F1F0895CF93DF93EC012B8141
S113112020FF33C026FF0AC02F7B2B838E819F8133
S113113001969F838E838A8190E029C022FF0FC08D
S1131140E881F9818081082E000C990B009719F42D
S113115020622B831AC03196F983E8830EC0EA8596
S1131160FB85099597FF09C02B81019611F080E258
S113117001C080E1822B8B8308C02E813F812F5FC9
S11311803F4F3F832E83992702C08FEF9FEFDF915C
S1131190CF9108950F931F93CF93DF93FB01238186
S11311A021FD03C08FEF9FEF2CC022FF16C04681A4
S11311B05781248135814217530744F4A081B181BA
S11311C09D012F5F3F4F318320838C93268137818C
S11311D02F5F3F4F3783268314C08B01EC01FB0143
S11311E00084F185E02D0995892BE1F6D801169646
S11311F08D919C911797019617969C938E931697B1
S1131200CE01DF91CF911F910F910895FB012381AE
S113121020FF12C026FD10C08F3F3FEF930761F0FF
S113122082832F7D206423832681378121503109D5
S113123037832683992708958FEF9FEF0895FA0146
S1131240AA27283051F1203181F1E8946F936E7F01
S11312506E5F7F4F8F4F9F4FAF4FB1E03ED0B4E0F2
S11312603CD0670F781F891F9A1FA11D680F791F33
S11312708A1F911DA11D6A0F711D811D911DA11D44
S113128020D009F468943F912AE0269F1124301954
S1131290305D3193DEF6CF010895462F4770405DEF
S11312A04193B3E00FD0C9F7F6CF462F4F70405D9E
S11312B04A3318F0495D31FD4052419302D0A9F7F9
S11312C0EACFB4E0A6959795879577956795BA95F3
S11312D0C9F700976105710508959B01AC010A2EB9
S11312E006945795479537952795BA95C9F7620F90
S11312F0731F841F951FA01D08959927882708959B
S11313002F923F924F925F926F927F928F929F9211
S1131310AF92BF92CF92DF92EF92FF920F931F93FF
S1131320CF93DF93CDB7DEB7CA1BDB0B0FB6F894B0
S1131330DEBF0FBECDBF09942A88398848885F84F0
S11313406E847D848C849B84AA84B984C884DF8061
S1131350EE80FD800C811B81AA81B981CE0FD11D45
S11313600FB6F894DEBF0FBECDBFED010895F8941B
S1051370FFCFA9
S11313722575004D65617375726D656E743A20252D
S1131382752E25752073657420706F696E743A200A
S109139225750D0A0000A0
S9030000FC
