:100000000C9434000C943E000C943E000C943E0082
:100010000C943E000C943E000C943E000C943E0068
:100020000C943E000C943E000C943E000C943E0058
:100030000C943E000C943E000C943E000C943E0048
:100040000C943E000C943E000C945A000C943E001C
:100050000C943E000C943E000C943E000C943E0028
:100060000C943E000C943E0011241FBECFEFD8E04C
:10007000DEBFCDBF0E946E000C948D000C9400007A
:1000800087E690E09093C5008093C4001092C00072
:10009000E1ECF0E088E1808380818068808386E005
:1000A0008093C20008959091C00095FFFCCF80938B
:1000B000C60008951F920F920FB60F9211248F93CE
:1000C000EF93FF93E6ECF0E080818083FF91EF9166
:1000D0008F910F900FBE0F901F90189587E690E0BC
:1000E0009093C5008093C4001092C00088E1809373
:1000F000C1008091C10080688093C10086E0809338
:10010000C200789483B7817F83BF83B7816083BF48
:0E011000889583B78E7F83BFF8CFF894FFCF1A
:00000001FF
