S01000007A6164616E6965342E7372656304
S11300000C9434000C943E000C943E000C943E007E
S11300100C943E000C943E000C943E000C943E0064
S11300200C943E000C943E000C943E000C943E0054
S11300300C943E000C943E000C943E000C943E0044
S11300400C943E000C943E000C943E000C943E0034
S11300500C943E000C943E000C943E000C943E0024
S11300600C943E000C943E0011241FBECFEFD8E048
S1130070DEBFCDBF0E945C000C948B000C9400008A
S113008080E480937C0081E080937E00EAE7F0E0E6
S113009087E08083808180688083089581EE94E086
S11300A0909387008093860082E8809380008DE19E
S11300B080938100219A089580E480937C0081E0FC
S11300C080937E0087E080937A0080917A00806834
S11300D080937A0081EE94E0909387008093860069
S11300E082E8809380008DE180938100219A2FE340
S11300F030E080917A00806480937A0080917A0065
S113010086FDFCCF8091780090917900309389002E
S10D011020938800EECFF894FFCF8F
S9030000FC
