:100000000C9434000C943E000C943E000C943E0082
:100010000C943E000C943E000C943E000C943E0068
:100020000C943E000C943E000C943E000C943E0058
:100030000C943E000C943E000C943E000C943E0048
:100040000C943E000C943E000C943E000C943E0038
:100050000C943E000C943E000C943E000C943E0028
:100060000C943E000C943E0011241FBECFEFD8E04C
:10007000DEBFCDBF0E9440000C9470000C940000C5
:100080008091C100877E8093C1008FEF8AB980E0A4
:1000900041E050E0873090F09A01082E01C0220F15
:1000A0000A94EAF72BB92FEF31EE94E0215030405B
:1000B0009040E1F700C00000815071F79A01082ECE
:1000C00001C0220F0A94EAF72BB92FEF31EE94E02A
:1000D000215030409040E1F700C000008F5FDACF40
:0400E000F894FFCFC2
:00000001FF
