:100000000C9434000C9446000C9446000C9446006A
:100010000C9446000C9446000C9446000C94460048
:100020000C945B000C9446000C9446000C94460023
:100030000C9446000C9446000C9446000C94460028
:100040000C9446000C9446000C9446000C94460018
:100050000C9446000C9446000C9446000C94460008
:100060000C9446000C94460011241FBECFEFD8E03C
:10007000DEBFCDBF21E0A0E0B1E001C01D92AE37F0
:10008000B207E1F70E9490000C94AC000C940000C1
:1000900086E08093B10082E08093B00089EF809386
:1000A000B300089584E080937000089580E287B9DA
:1000B00084E08BB908951F920F920FB60F9211240E
:1000C0008F93EF93FF93E0910001F0E0EF5FFE4F1D
:1000D0008081882319F1459AE0910001F0E0EF5FFB
:1000E000FE4F10824A9907C0E0910001F0E0EF5FF7
:1000F000FE4F81E08083809100018F5F809300013B
:10010000809100018D3710F010920001FF91EF9166
:100110008F910F900FBE0F901F9018954598E2CFCA
:1001200086E08093B10082E08093B00089EF8093F5
:10013000B30084E08093700090E297B98BB9789413
:1001400083B7817F866083BF83B7816083BF8895D3
:0C01500083B78E7F83BFF4CFF894FFCFFD
:00000001FF
