:100000000C9434000C9451000C9451000C94510049
:100010000C9451000C9451000C9451000C9451001C
:100020000C9451000C9451000C9451000C9451000C
:100030000C9451000C9451000C9451000C945100FC
:100040000C9451000C9451000C9451000C945100EC
:100050000C9451000C9451000C9451000C945100DC
:100060000C9451000C94510011241FBECFEFD8E026
:10007000DEBFCDBF11E0A0E0B1E0E2E1FCE002C0F4
:1000800005900D92AE30B107D9F721E0AEE0B1E0B6
:1000900001C01D92A232B207E1F70E94CC020C947B
:1000A00007060C9400008091C00087FFFCCF809170
:1000B000C60090E008950E94300180E090E008952D
:1000C00087E690E09093C5008093C4001092C00032
:1000D00088E18093C10086E08093C20008951F9359
:1000E000CF93DF9380E40E94E90015E0D0E1C7E000
:1000F0008D2F0E943001C150D9F780E00E9430015D
:100100008D2F8695D82B115091F780E8DF91CF91F4
:100110001F910C94E90080FF0BC05E9A81FF0BC019
:100120005D9A82FF0BC05C9A83FD0BC05B980895BB
:100130005E9881FDF5CF5D9882FDF5CF5C9883FFD9
:10014000F5CF5B9A08955F9A982F92959F7090FFD4
:1001500020C05E9A91FF20C05D9A92FF20C05C9AF9
:10016000987001F55B985F985F9A80FF20C05E9A57
:1001700081FF20C05D9A82FF20C05C9A83FD20C071
:100180005B985F9887EC90E00197F1F700C0000062
:1001900008955E9891FDE0CF5D9892FDE0CF5C9868
:1001A000987001F35B9A5F985F9A80FDE0CF5E984C
:1001B00081FDE0CF5D9882FDE0CF5C9883FFE0CFCA
:1001C0005B9A5F9887EC90E00197F1F700C0000020
:1001D000089528985F9A982F92959F7090FF20C05D
:1001E0005E9A91FF20C05D9A92FF20C05C9A987041
:1001F00001F55B985F985F9A80FF20C05E9A81FF4F
:1002000020C05D9A82FF20C05C9A83FD20C05B986D
:100210005F9887EC90E00197F1F700C00000089527
:100220005E9891FDE0CF5D9892FDE0CF5C9898706C
:1002300001F35B9A5F985F9A80FDE0CF5E9881FD45
:10024000E0CF5D9882FDE0CF5C9883FFE0CF5B9AC2
:100250005F9887EC90E00197F1F700C000000895E7
:10026000289A5F9A982F92959F7090FF20C05E9A6F
:1002700091FF20C05D9A92FF20C05C9A987001F5B2
:100280005B985F985F9A80FF20C05E9A81FF20C0D4
:100290005D9A82FF20C05C9A83FD20C05B985F98C6
:1002A00087EC90E00197F1F700C0000008955E9898
:1002B00091FDE0CF5D9892FDE0CF5C98987001F3DE
:1002C0005B9A5F985F9A80FDE0CF5E9881FDE0CFFA
:1002D0005D9882FDE0CF5C9883FFE0CF5B9A5F98EA
:1002E00087EC90E00197F1F700C000000895FC0151
:1002F0009081992309F444C0319622C05E9A21FF6F
:1003000029C05D9A22FF29C05C9A287049F55B9844
:100310005F985F9A90FF29C05E9A91FF29C05D9A0D
:1003200092FF29C05C9A93FD29C05B985F9887EC87
:1003300090E00197F1F700C000009191992301F13D
:10034000289A5F9A292F22952F7020FDD7CF5E988B
:1003500021FDD7CF5D9822FDD7CF5C982870B9F2E8
:100360005B9A5F985F9A90FDD7CF5E9891FDD7CF4B
:100370005D9892FDD7CF5C9893FFD7CF5B9AD6CF8D
:10038000089590E4699F800D1124806828985F9AF1
:10039000982F92959F7090FF1EC05E9A91FF1EC08D
:1003A0005D9A92FF1EC05C9A5B9A5F985F9A80FF8D
:1003B0001EC05E9A81FF1EC05D9A82FF1EC05C9ABD
:1003C00083FD1EC05B985F9887EC90E00197F1F782
:1003D00000C0000008955E9891FDE2CF5D9892FD07
:1003E000E2CF5C985B9A5F985F9A80FDE2CF5E985F
:1003F00081FDE2CF5D9882FDE2CF5C9883FFE2CF82
:100400005B9A5F9887EC90E00197F1F700C00000DD
:10041000089528985F9A5E985D985C985B985F98BD
:100420005F9A5E9A5D985C985B985F9887EC90E025
:100430000197F1F700C000008FE39FE10197F1F70A
:1004400000C00000089528985F9A5E985D985C98B7
:100450005B985F985F9A5E985D9A5C985B985F98EE
:1004600087EC90E00197F1F700C000008FE39FE177
:100470000197F1F700C000000895569A559A549AD2
:10048000539A579A209A8FE59AEE0197F1F700C098
:10049000000028985F9883E05F9A5E9A5D9A5C9866
:1004A0005B985F98EFE1FEE43197F1F700C0000040
:1004B000815091F75F9A5E985D9A5C985B985F981F
:1004C0008FE99FE00197F1F700C0000028985F9A3C
:1004D0005E985D9A5C985B985F985F9A5E985D986D
:1004E0005C985B9A5F98E7ECF0E03197F1F700C019
:1004F000000028985F9A5E985D985C985B985F987A
:100500005F9A5E985D985C985B9A5F9887EC90E044
:100510000197F1F700C0000028985F9A5E985D98F7
:100520005C985B985F985F9A5E9A5D985C985B9820
:100530005F98E7ECF0E03197F1F700C000008FE33F
:100540009FE10197F1F700C0000028985F9A5E983C
:100550005D985C985B985F985F9A5E985D9A5C9AEC
:100560005B985F98E7ECF0E03197F1F700C000008E
:1005700028985F9A5E985D985C985B985F985F9A00
:100580005E985D985C9A5B9A5F9887EC90E0019723
:10059000F1F700C00000089587E690E09093C50051
:1005A0008093C4001092C00088E18093C10086E06F
:1005B0008093C2000E943D020E946F000E940902C7
:1005C0008EE091E02BE530E0309317012093160187
:1005D00023E530E0309319012093180123E02093A4
:1005E000110110921B0110921A0190932101809326
:1005F000200190931F0180931E0100E011E01F93E2
:100600000F930E9429030F900F90D0E0C0E061E0AB
:100610008D2F0E94C1018C2F0E9430012FEF81EE9F
:1006200094E0215080409040E1F700C00000CF5F8F
:10063000C53069F7DF5FD03149F72FEF87EA91E6E0
:10064000215080409040E1F700C000000E94090264
:10065000D6CFA0E0B0E0EFE2F3E00C94E005AE010D
:100660004B5F5F4FFA0161917191AF0180911E0163
:1006700090911F010E943F03E2E00C94FC05ABE067
:10068000B0E0E5E4F3E00C94D0056C017B018A0155
:10069000FC0117821682838181FFCCC1CE010196B5
:1006A0003C01F6019381F70193FD859193FF8191C0
:1006B0007F01882309F4BAC1853239F493FD85910D
:1006C00093FF81917F01853229F4B60190E00E9469
:1006D0003605E7CF912C212C312CFFE1F315D8F012
:1006E0008B3279F038F4803279F08332A1F4232D03
:1006F00020611DC08D3261F0803369F4232D2160AB
:1007000016C0832D8260382EE32DE4603E2E2AC071
:10071000F32DF8601DC037FC2DC020ED280F2A30C6
:1007200040F08E32B9F436FC81C1232D2064322E84
:1007300019C036FE06C08AE0989E200D1124922E24
:1007400011C0EAE02E9E200D1124222EF32DF0621E
:100750003F2E08C08C3621F4832D8068382E02C0CD
:10076000883641F4F70193FD859193FF81917F01D4
:100770008111B3CF982F9F7D9554933028F40C5F4F
:100780001F4F9FE399830DC0833631F0833771F09B
:10079000833509F059C021C0F801808189830E5F3B
:1007A0001F4F88248394912C530113C02801F2E039
:1007B0004F0E511CF801A080B18036FE03C0692D98
:1007C00070E002C06FEF7FEFC5010E942B054C0166
:1007D0008201F32DFF773F2E16C0280122E0420E42
:1007E000511CF801A080B18036FE03C0692D70E075
:1007F00002C06FEF7FEFC5010E9420054C01F32D71
:10080000F0683F2E820133FC1BC0822D90E08816D9
:100810009906B0F4B60180E290E00E9436052A9471
:10082000F4CFF50137FC859137FE81915F01B60168
:1008300090E00E94360521102A9421E0821A910846
:100840008114910471F7E8C0843611F0893641F5BE
:10085000F80137FE07C060817181828193810C5F4E
:100860001F4F08C060817181072E000C880B990B07
:100870000E5F1F4FF32DFF763F2E97FF09C0909517
:100880008095709561957F4F8F4F9F4FF0683F2EF9
:100890002AE030E0A3010E947205882E861845C028
:1008A000853731F4232D2F7EB22E2AE030E025C08B
:1008B000932D997FB92E8F36C1F018F4883579F0D1
:1008C000B5C0803719F0883721F0B0C0E92FE0615A
:1008D000BE2EB4FE0DC0FB2DF460BF2E09C034FE49
:1008E0000AC0292F2660B22E06C028E030E005C0DD
:1008F00020E130E002C020E132E0F801B7FE07C09D
:1009000060817181828193810C5F1F4F06C060817D
:10091000718180E090E00E5F1F4FA3010E9472057D
:10092000882E8618FB2DFF773F2E36FE0DC0232D17
:100930002E7FA22E891458F434FE0BC032FC09C05D
:10094000832D8E7EA82E05C0B82CA32C03C0B82CF6
:1009500001C0B92CA4FE0FC0FE01E80DF11D80817D
:10096000803321F49A2D997EA92E09C0A2FE06C0DB
:10097000B394B39404C08A2D867809F0B394A3FC91
:1009800011C0A0FE06C0B21488F4280C922C9B184B
:100990000EC0B21460F4B60180E290E00E94360509
:1009A000B394F7CFB21418F42B1802C0982C212C52
:1009B000A4FE10C0B60180E390E00E943605A2FEBE
:1009C00017C0A1FC03C088E790E002C088E590E072
:1009D000B6010CC08A2D867859F0A1FE02C08BE2C8
:1009E00001C080E2A7FC8DE2B60190E00E943605CE
:1009F000891438F4B60180E390E00E9436059A9499
:100A0000F7CF8A94F301E80DF11D8081B60190E0E3
:100A10000E9436058110F5CF222009F442CEB6019E
:100A200080E290E00E9436052A94F6CFF601868196
:100A3000978102C08FEF9FEF2B96E2E10C94EC05BB
:100A4000FC010590615070400110D8F78095909599
:100A50008E0F9F1F0895FC0161507040019001109E
:100A6000D8F7809590958E0F9F1F08950F931F9331
:100A7000CF93DF93FB01238121FD03C08FEF9FEF15
:100A80002CC022FF16C04681578124813581421730
:100A9000530744F4A081B1819D012F5F3F4F318303
:100AA00020838C93268137812F5F3F4F37832683A6
:100AB00014C08B01EC01FB010084F185E02D099548
:100AC000892BE1F6D80116968D919C911797019686
:100AD00017969C938E931697CE01DF91CF911F911D
:100AE0000F910895FA01AA27283051F1203181F1A0
:100AF000E8946F936E7F6E5F7F4F8F4F9F4FAF4F26
:100B0000B1E03ED0B4E03CD0670F781F891F9A1F38
:100B1000A11D680F791F8A1F911DA11D6A0F711DEC
:100B2000811D911DA11D20D009F468943F912AE0F8
:100B3000269F11243019305D3193DEF6CF010895E0
:100B4000462F4770405D4193B3E00FD0C9F7F6CF11
:100B5000462F4F70405D4A3318F0495D31FD4052D9
:100B6000419302D0A9F7EACFB4E0A695979587956F
:100B700077956795BA95C9F700976105710508954E
:100B80009B01AC010A2E06945795479537952795FA
:100B9000BA95C9F7620F731F841F951FA01D089592
:100BA0002F923F924F925F926F927F928F929F927D
:100BB000AF92BF92CF92DF92EF92FF920F931F936B
:100BC000CF93DF93CDB7DEB7CA1BDB0B0FB6F8941C
:100BD000DEBF0FBECDBF09942A88398848885F845C
:100BE0006E847D848C849B84AA84B984C884DF80CD
:100BF000EE80FD800C811B81AA81B981CE0FD11DB1
:100C00000FB6F894DEBF0FBECDBFED010895F89486
:020C1000FFCF14
:0E0C120048656C6C6F20776F726C6421000077
:00000001FF
