:100000000C94DC000C94F9000C94F9000C94F900A9
:100010000C94F9000C94F9000C94F9000C94F9007C
:100020000C94F9000C94F9000C94F9000C94F9006C
:100030000C94F9000C94F9000C94F9000C94F9005C
:100040000C94F9000C94F9000C94F9000C94F9004C
:100050000C94F9000C94F9000C94F9000C94F9003C
:100060000C94F9000C94F9006E616E00696E6600E4
:1000700000407A10F35A00A0724E18090010A5D45F
:10008000E80000E87648170000E40B54020000CABC
:100090009A3B000000E1F505000080969800000002
:1000A00040420F000000A086010000001027000061
:1000B0000000E803000000006400000000000A00E7
:1000C000000000000100000000002C76D888DC67EA
:1000D0004F0823DFC1DFAE59E1B1B796E5E3E45342
:1000E000C63AE651997696E8E6C28426EB898C9B5F
:1000F00062ED407C6FFCEFBC9C9F40F2BAA56FA5FF
:10010000F490055A2AF75C936B6CF9676DC11BFC80
:10011000E0E40D47FEF520E6B500D0ED902E03009B
:10012000943577050080841E080000204E0A0000E8
:1001300000C80C333333330F986E12831141EF8DA7
:100140002114893BE65516CFFEE6DB18D1844B38E7
:100150001BF77C1D901DA4BBE424203284725E2218
:100160008100C9F124ECA1E53D276364696E6F70DD
:10017000737578585B65666745464700616E006E2B
:1001800066696E69747900CDCCCC3D0AD7233C17E3
:10019000B7D13877CC2B329595E6241FB14F0A00A2
:1001A0000020410000C84200401C4620BCBE4CCA92
:1001B0001B0E5AAEC59D740011241FBECFEFD8E0B0
:1001C000DEBFCDBF12E0A0E0B1E0E2E0F9E202C0A4
:1001D00005900D92AE39B107D9F722E0AEE9B2E051
:1001E00001C01D92A23BB207E1F70E9408020C94E5
:1001F0007F140C9400009091C00095FFFCCF809379
:10020000C60080E090E008958091C00087FFFCCF99
:100210008091C60090E0089587E690E09093C50035
:100220008093C4001092C00088E18093C10086E0F2
:100230008093C200089581E0809381000895EF9239
:10024000FF920F931F93CF93DF93CDB7DEB72C9719
:100250000FB6F894DEBF0FBECDBF19861A861B8677
:100260001C861D821E821F82188619821A821B829A
:100270001C8280E091E09F938F930E94A913CE018E
:1002800009969F938F938BE0E82E81E0F82EFF92E2
:10029000EF920E94EF1389859A85AB85BC85BF9349
:1002A000AF939F938F930EE011E01F930F930E94E3
:1002B000A91384E191E09F938F930E94A913CE012B
:1002C00005969F938F93FF92EF920E94EF138D817B
:1002D0009E81AF81B885BF93AF939F938F931F93F8
:1002E0000F930E94A91304E810E0F801E080F18068
:1002F00069857A858B859C852D813E814F815885C6
:100300000E945E0E69837A838B839C83F8018081CF
:1003100091814C978E199F099F938F938FE191E064
:100320009F938F930E94A913F801E080F180698563
:100330007A858B859C852D813E814F8158850E94D1
:100340005D0E69837A838B839C83F8018081918120
:100350004C978E199F099F938F938CE391E09F9305
:100360008F930E94A913F801E080F18069857A8556
:100370008B859C852D813E814F8158850E94CA0FB7
:1003800069837A838B839C83F801808191810FB686
:10039000F894DEBF0FBECDBF4C978E199F099F9377
:1003A0008F938CE591E09F938F930E94A913F8019E
:1003B000E080F18069857A858B859C852D813E81E1
:1003C0004F8158850E94CA0E69837A838B839C83F0
:1003D000F801808191814C978E199F099F938F938B
:1003E0008FE791E09F938F930E94A9130FB6F89423
:1003F000DEBF0FBECDBF2C960FB6F894DEBF0FBE8A
:10040000CDBFDF91CF911F910F91FF90EF90089595
:10041000CF93DF93CDB7DEB7C655D1090FB6F894A9
:10042000DEBF0FBECDBF87E690E09093C5008093FE
:10043000C4001092C00088E18093C10086E08093E0
:10044000C2008EE992E02BEF30E03093A7022093B8
:10045000A60224E031E03093A9022093A80223E011
:100460002093A1021092AB021092AA029093B102C3
:100470008093B0029093AF028093AE029093AD024E
:100480008093AC0281E0809381009E01225C3F4F0B
:100490003901AE01435C5F4F63965FAF4EAF639728
:1004A000CE01CC9661969FAF8EAF6197DE01D99653
:1004B0002F96BFAFAEAF2F97275031092D963FAF84
:1004C0002EAF2D974C5051092B965FAF4EAF2B9707
:1004D0000F9729969FAF8EAF299754972796BFAF56
:1004E000AEAF27972651310925963FAF2EAF2597FE
:1004F0004451510923965FAF4EAF239744972196FD
:100500009FAF8EAF219788EE882E81E0982E9FE1D5
:10051000292E91E0392E2EE5422E22E0522EC2C025
:10052000882309F4DCC0813009F0B8C01AAE19AED6
:1005300018AE1FAA1EAA1DAA89E092E09F938F936E
:100540000E94A9132F96BFAD2F97BF932E96EFADA4
:100550002E97EF9305E1E02E02E0F02EFF92EF924E
:100560000E94EF1389AD9AAD9F938F9308EF11E02E
:100570001F930F930E94A91388E192E09F938F939A
:100580000E94A9132D962FAD2D972F932C963FAD3A
:100590002C973F93FF92EF920E94EF138FA998AD93
:1005A0009F938F931F930F930E94A9132091840010
:1005B0003091850049AD5AAD8FA998AD840F951F34
:1005C0009EAB8DAB80918400909185004097821BFB
:1005D000930B9F938F933F922F920E94A913209188
:1005E00084003091850089AD9AAD4FA958AD841B28
:1005F000950B9EAB8DAB80918400909185004097C8
:10060000821B930B9F938F934CE351E05F934F9327
:100610000E94A913209184003091850069AD7AADC4
:100620004FA958AD649FC001659F900D749F900DB8
:1006300011249EAB8DAB80918400909185004097F2
:10064000821B930B9F938F93ACE5B1E0BF93AF9365
:100650000E94A913209184003091850089AD9AAD44
:100660006FA978AD0E9447107EAB6DAB809184007E
:10067000909185000FB6F894DEBF0FBECDBF4097B6
:10068000821B930B9F938F938FE791E09F938F93A0
:100690000E94A9130F900F900F900F9086EE91E09B
:1006A0000E94BF131EAE8CE991E00E94BF137F929F
:1006B0006F929F928F920E94EF130F900F900F9066
:1006C0000F908EAD823009F4A8C008F429CF833092
:1006D00009F484C1843011F70E941F01DFCF1DAEE1
:1006E0001CAE1BAE8DEE91E09F938F930E94A913D9
:1006F00063969FAD63979F936296AFAD6297AF93FA
:100700009F928F920E94EF138DAD282F082E000C20
:10071000330B3F938F9308EF11E01F930F930E94C9
:10072000A9138EEF91E09F938F930E94A913619676
:10073000BFAD6197BF936096EFAD6097EF939F92C7
:100740008F920E94EF138CAD282F082E000C330BD4
:100750003F938F931F930F930E94A91320918400BE
:10076000309185009DAD8CAD890F8BAF8091840059
:10077000909185000A97821B930B9F938F933F92D2
:100780002F920E94A91320918400309185008DAD95
:100790009CAD891B8BAF80918400909185000A9756
:1007A000821B930B9F938F932CE331E03F932F9306
:1007B0000E94A91320918400309185008DAD9CADDD
:1007C000899F802D11248BAF8091840090918500AA
:1007D0000A97821B930B9F938F938CE591E09F93D5
:1007E0008F930E94A91320918400309185008DADD4
:1007F0006CAD082E000C990B062E000C770B0E9496
:1008000047106BAF80918400909185000FB6F894EB
:10081000DEBF0FBECDBF0A9733CF19AA1AAA1BAAF3
:100820001CAA1DA61EA61FA618AA19A61AA61BA6B4
:100830001CA624E232E03F932F930E94A9132B962B
:100840005FAD2B975F932A968FAD2A978F93A0E386
:10085000B2E0BF93AF930E94EF1389A99AA9ABA905
:10086000BCA9BF93AF939F938F9324E332E03F9350
:100870002F930E94A9138BE392E09F938F930E9482
:10088000A9132996BFAD2997BF932896EFAD289756
:10089000EF9320E332E03F932F930E94EF138DA557
:1008A0009EA5AFA5B8A9BF93AF939F938F9384E301
:1008B00092E09F938F930E94A9132091840030911E
:1008C000850049A95AA96BA97CA98DA59EA5AFA5AC
:1008D000B8A9840F951FA61FB71F89A79AA7ABA712
:1008E000BCA780918400909185004C97821B930B4C
:1008F0009F938F933F922F920E94A913209184007F
:100900003091850089A99AA9ABA9BCA94DA55EA57E
:100910006FA578A9841B950BA60BB70B89A79AA77F
:10092000ABA7BCA780918400909185004C97821B57
:10093000930B9F938F932CE331E03F932F930E946F
:10094000A913E0918400F091850029A93AA94BA947
:100950005CA96DA57EA58FA598A90E94371069A7EF
:100960007AA78BA79CA780918400909185000FB6F1
:10097000F894DEBF0FBECDBF4C978E1B9F0B9F938D
:100980008F932CE531E03F932F930E94A9130091A0
:1009900084001091850069A97AA98BA99CA92DA52D
:1009A0003EA54FA558A90E945B1029A73AA74BA7BF
:1009B0005CA780918400909185004C97801B910BDF
:1009C0009F938F938FE791E09F938F930E94A9133A
:1009D0000FB6F894DEBF0FBECDBF60CE1DA21EA223
:1009E0001FA218A619A21AA21BA21CA21D8E1E8E3F
:1009F0001F8E18A2198E1A8E1B8E1C8E47E452E091
:100A00005F934F930E94A91327969FAD27979F93BB
:100A10002696AFAD2697AF932AE532E03F932F930A
:100A20000E94EF1388A58F938FA18F938EA18F9330
:100A30008DA18F935F924F920E94A91385E692E059
:100A40009F938F930E94A9132596BFAD2597BF93BF
:100A50002496EFAD2497EF932AE532E03F932F934E
:100A60000E94EF138CA18F938BA18F938AA18F93F8
:100A700089A18F935F924F920E94A91388E792E019
:100A80009F938F930E94A91323965FAD23975F9343
:100A900022968FAD22978F93AAE5B2E0BF93AF93D2
:100AA0000E94EF1388A18F938F8D8F938E8D8F93DC
:100AB0008D8D8F935F924F920E94A9130FB6F89479
:100AC000DEBF0FBECDBF8BE892E09F938F930E9455
:100AD000A91321963FAD21973F934FAD4F938AE5E0
:100AE00092E09F938F930E94EF138C8D8F938B8D49
:100AF0008F938A8D8F93898D8F935F924F920E94EF
:100B0000A9138DA19EA1AFA1B8A5AC01BD01770F1E
:100B1000440B542FBA01898B9A8BAB8BBC8B4D8BBA
:100B20004E8B4F8B488F29893A894B895C896D8917
:100B30007E89EF89F88DC9A0DAA0EBA0FCA0D701CF
:100B4000C601BB0F880B982FDC0167968CAF9DAF59
:100B5000AEAFBFAF6797CF0100E20E94B5112C295D
:100B60003D294E295F296496AFAD64976A2B7A2B95
:100B70008A2B9A2B298B3A8B4B8B5C8B6D8B7E8BC4
:100B80008F8B988F8D8D9E8DAF8DB8A1AC01BD01DF
:100B9000770F440B542FBA0189879A87AB87BC879C
:100BA0004D874E874F87488B29853A854B855C85D5
:100BB0006D857E85EF85F889C98CDA8CEB8CFC8C91
:100BC000D701C601BB0F880B982FDC0167968CAF4D
:100BD0009DAFAEAFBFAF6797CF010E94B5112C2973
:100BE0003D294E295F296496AFAD64976A2B7A2B15
:100BF0008A2B9A2B29873A874B875C876D877E875C
:100C00008F87988B19821A821B821C821D821E82FA
:100C10001F821886E0918400F091850029893A8925
:100C20004B895C896D897E898F89988DA984BA8466
:100C3000CB84DC84ED84FE840F8518890E94CE115C
:100C400029833A834B835C836D837E838F8398876C
:100C50008091840090918500C4978E1B9F0B9F9379
:100C60008F933F922F920E94A913E0918400F091FC
:100C7000850029893A894B895C896D897E898F89AC
:100C8000988DA984BA84CB84DC84ED84FE840F859E
:100C900018890E94D71129833A834B835C836D8323
:100CA0007E838F8398878091840090918500C4977C
:100CB0008E1B9F0B9F938F932CE331E03F932F93D9
:100CC0000E94A913809184009091850065969FAF42
:100CD0008EAF659729893A894B895C896D897E89B0
:100CE0008F89988DA984BA84CB84DC84ED84FE84BA
:100CF0000F8518890E94851029833A834B835C8372
:100D00006D837E838F839887809184009091850086
:100D1000C4976596AEADBFAD65978A1B9B0B9F933D
:100D20008F932CE531E03F932F930E94A91380917C
:100D300084009091850065969FAF8EAF6597298955
:100D40003A894B895C896D897E898F89988DA984C0
:100D5000BA84CB84DC84ED84FE840F8518890E94DC
:100D6000E01029833A834B835C836D837E838F837A
:100D700098878091840090918500C4976596AEAD68
:100D8000BFAD65978A1B9B0B9F938F932FE731E035
:100D90003F932F930E94A9130FB6F894DEBF0FBEA6
:100DA000CDBF7CCCA0E1B0E0E8EDF6E00C947E1184
:100DB0007C011B016A01FC0117821682838181FF7D
:100DC00044C39E012F5F3F4F3901F7019381F10129
:100DD00093FD859193FF81911F01882309F431C30D
:100DE000853239F493FD859193FF81911F018532FE
:100DF00039F4B70190E00E946D1356016501E5CF0B
:100E000010E0512C912CFFE1F915D8F08B3279F0DC
:100E100038F4803279F08332A1F4F92DF0612EC0DC
:100E20008D3261F0803369F4292D21602DC0392D78
:100E30003260932E892D8460982E2AC0E92DE860B7
:100E400015C097FC2DC020ED280F2A3088F496FE9F
:100E500006C03AE0139F200D1124122F19C08AE01A
:100E6000589E200D1124522EE92DE0629E2E10C0B6
:100E70008E3231F496FCE5C2F92DF0649F2E08C045
:100E80008C3621F4292D2068922E02C0883641F438
:100E9000F10193FD859193FF81911F018111B3CFE2
:100EA0009BEB980F933020F4992D9061805E07C0E2
:100EB0009BE9980F933008F066C1992D9F7E96FFAD
:100EC00016E09F73992E853619F49064992E08C008
:100ED000863621F4392F3068932E02C0111111503B
:100EE00097FE07C01C3350F444244394410E27E07E
:100EF0000BC0183038F027E017E005C027E09CE36E
:100F0000492E02C0212F412C560184E0A80EB11CAD
:100F1000F6016081718182819381042DA3010E9479
:100F200025126C01F981FC87F0FF02C0F3FF06C0B7
:100F300091FC06C092FE06C000E205C00DE203C0AF
:100F40000BE201C000E08C858C7019F001115AC2CF
:100F50009BC297FE10C04C0CFC85F4FF04C08A8134
:100F6000813309F44A94141474F528E0241578F5B3
:100F700088E0482E2CC096FC2AC0812F90E08C156A
:100F80009D059CF03CEFC3163FEFD30674F0892D0E
:100F90008068982E0AC0E2E0F0E0EC0FFD1FE10F40
:100FA000F11D8081803319F411501111F4CF97FE97
:100FB0000EC044244394410E812F90E0C816D906F8
:100FC0002CF41C1904C04424439401C010E097FE83
:100FD00006C01C141D0434F4C601019605C085E04A
:100FE00090E002C081E090E001110196112331F000
:100FF000212F30E02F5F3F4F820F931F252D30E0D0
:101000008217930714F4581A01C0512C892D897046
:1010100049F4552039F0B70180E290E00E946D1349
:101020005A94F7CF002329F0B701802F90E00E9457
:101030006D1393FC09C0552039F0B70180E390E0AF
:101040000E946D135A94F7CF97FE4CC04601D7FE0D
:1010500002C0812C912CC60188199909F301E80F6F
:10106000F91FFE87ED87960124193109388B2F87E8
:10107000012F10E01195019511093FEF831693069A
:1010800029F4B7018EE290E00E946D13C814D904D0
:101090004CF08F8598898815990524F4ED85FE8597
:1010A000818101C080E3F1E08F1A91082D853E8592
:1010B0002F5F3F4F3E872D87801691062CF0B7019A
:1010C00090E00E946D13D9CFC814D90441F49A81DD
:1010D000963320F4953319F43C8534FF81E3B7014E
:1010E00090E04EC08A81813319F09C859F7E9C8759
:1010F000B70190E00E946D13111105C094FC18C057
:1011000085E690E017C0B7018EE290E00E946D1373
:101110001E5F82E001E0080FF301E80FF11D8081FE
:10112000B70190E00E946D13802F0113F3CFE6CF3B
:1011300085E490E0B7010E946D13D7FC06C0C1148E
:10114000D10441F4EC85E4FF05C0D194C194D108E9
:101150008DE201C08BE2B70190E00E946D1380E345
:101160002AE0C216D1042CF08F5FFAE0CF1AD10822
:10117000F7CFB70190E00E946D13B701C601C0968A
:101180000E946D1354C1833631F0833779F0833573
:1011900009F056C020C0560132E0A30EB11CF60182
:1011A0008081898301E010E0630112C05601F2E002
:1011B000AF0EB11CF601C080D18096FE03C0612F36
:1011C00070E002C06FEF7FEFC6010E9424138C0114
:1011D000F92DFF7714C0560122E0A20EB11CF601D2
:1011E000C080D18096FE03C0612F70E002C06FEF17
:1011F0007FEFC6010E9419138C01F92DF0689F2E14
:10120000F3FD1AC0852D90E008171907A8F4B7015F
:1012100080E290E00E946D135A94F4CFF60197FC9F
:10122000859197FE81916F01B70190E00E946D1347
:1012300051105A94015011090115110579F7F7C0A1
:10124000843611F0893661F5560197FE09C024E015
:10125000A20EB11CF60160817181828193810AC066
:10126000F2E0AF0EB11CF60160817181072E000C17
:10127000880B990BF92DFF769F2E97FF09C090954B
:101280008095709561957F4F8F4F9F4FF0689F2E8F
:101290002AE030E0A3010E941E14C82EC6183FC0E9
:1012A000092D853721F40F7E2AE030E01DC0097F2B
:1012B0008F3691F018F4883559F0C3C0803719F093
:1012C000883711F0BEC0006104FF09C0046007C088
:1012D00094FE08C0066006C028E030E005C020E1AA
:1012E00030E002C020E132E0560107FF09C084E08F
:1012F000A80EB11CF601608171818281938108C0C2
:10130000F2E0AF0EB11CF6016081718180E090E0E7
:10131000A3010E941E14C82EC6180F77902E96FEA9
:101320000BC0092D0E7FC11650F494FE0AC092FC2A
:1013300008C0092D0E7E05C0DC2C092D03C0DC2C55
:1013400001C0D12E04FF0DC0FE01EC0DF11D808106
:10135000803311F4097E09C002FF06C0D394D394F0
:1013600004C0802F867809F0D39403FD11C000FFDC
:1013700006C01C2DD51480F4150D1D190DC0D514F3
:1013800058F4B70180E290E00E946D13D394F7CF38
:10139000D51410F45D1801C0512C04FF10C0B70122
:1013A00080E390E00E946D1302FF17C001FD03C0AF
:1013B00088E790E002C088E590E0B7010CC0802F7C
:1013C000867859F001FF02C08BE201C080E207FD80
:1013D0008DE2B70190E00E946D13C11638F4B70199
:1013E00080E390E00E946D131150F7CFCA94F3018F
:1013F000EC0DF11D8081B70190E00E946D13C110CA
:10140000F5CF15C0F4E0F51560F584E0581A93FEA9
:101410001FC0011127C02C8523FF2AC008E610E059
:10142000392D3071932EF8018491811124C05520FB
:1014300009F4E4CCB70180E290E00E946D135A9465
:10144000F6CFF7018681978126C08FEF9FEF23C0EB
:10145000B70180E290E00E946D135A945110F8CFCA
:10146000D8CF512CB701802F90E00E946D13D3CFBD
:101470000CE610E0D5CF91108052B70190E00E94A9
:101480006D130F5F1F4FCFCF23E0251510F483E0BE
:10149000BDCF512CC0CF6096E2E10C949A1120FD93
:1014A00009C0FC0123FD05C022FF02C073836283D3
:1014B00051834083089544FD17C046FD17C0AB011A
:1014C000BC01DA01FB01AA0FBB1FEE1FFF1F109426
:1014D000D1F74A0F5B1F6E1F7F1FCB01BA01660F4A
:1014E000771F881F991F09C033E001C034E0660FE1
:1014F000771F881F991F3150D1F7620F711D811D11
:10150000911D08950F931F93CF93DF938C01C80112
:101510000E942F13EC0197FD08C00E94FD12892B39
:10152000B1F7B801CE010E940514CE01DF91CF9131
:101530001F910F910895A0E0B0E0E1EAFAE00C9469
:1015400084117C018B016A01D22F0E942F139C0110
:1015500033272B32310521F02D32310559F4D06873
:101560000150110911F480E06BC0C7010E942F13D4
:1015700097FDF9CFCD2FCD7F2D2F207319F5803317
:1015800009F5580181E0A81AB10809F445C0C7015E
:101590000E942F1397FD40C09C012F7D33272835D3
:1015A000310551F4C26402501109B1F1C7010E9422
:1015B0002F1397FF07C030C0D6FF02C0C26001C022
:1015C000C2618501812C912C540120ED280F283017
:1015D00080F0C4FF04C0B7010E9405141AC02A306D
:1015E00040F0C6FFF8CF2F7D3FEE320F363098F730
:1015F00027504C2FC501B4010E945B0A4B015C01CE
:10160000C2600150110959F0C7010E942F1397FFC2
:10161000DCCFC1FD04C0A7CF812C912C5401C7FFA2
:1016200008C0B094A09490948094811C911CA11C3B
:10163000B11C2C2FB501A401C6010E944F0A81E004
:10164000CDB7DEB7ECE00C94A011A0E2B0E0EBE285
:10165000FBE00C9480115C014B017A018E010F5F5D
:101660001F4F680180E2F80111928A95E9F7F501B0
:10167000538040E050E0612C90E0712CA1E0B0E09C
:10168000F90153FC859153FE81918F01482E9F01F2
:10169000811103C080E090E096C08E3519F44115A9
:1016A000510551F1672D70E0641775073CF48D35D5
:1016B00061F18D3219F4992311F103C0992309F4D2
:1016C0006DC0842D869586958695F601E80FF11DEF
:1016D000842D87708D0102C0000F111F8A95E2F7DB
:1016E000C8019081892B8083641459F0461410F44A
:1016F0004394E7CF4A94E5CF7724739403C091E0F5
:1017000001C090E04F5F5F4FBBCF992319F08E81EE
:1017100080628E83711003C07724739419C0F60120
:101720009E012F5D3F4F8081809581932E173F074B
:10173000D1F7F2CFE114F10431F0F7018083B70162
:101740006F5F7F4F7B0171E0871A9108712CF9F070
:10175000C5010E942F1397FD18C0FC01FF2723E04D
:10176000F595E7952A95E1F7EC0DFD1D208130E018
:10177000AC014770552702C0359527954A95E2F789
:1017800020FDD8CFB5010E940514711083CFE1145C
:10179000F10411F0F7011082C80115C0682F669599
:1017A00066956695F601E60FF11D682F67708D014D
:1017B00002C0000F111F6A95E2F7B8017081672B14
:1017C0006083682E9FCFA096E0E10C949C112F922D
:1017D0003F924F925F926F927F929F92AF92BF9291
:1017E000CF92DF92EF92FF920F931F93CF93DF93ED
:1017F0006C018B011A010E942F13EC0199278B3287
:10180000910529F08D9781F430E8932E01C0912C39
:101810000150110911F480E00CC1C6010E942F1380
:10182000EC0197FF02C0F7CF912CCE010E94061366
:101830008936910531F08E36910599F5CCE7D1E0E6
:1018400002C0CFE7D1E02196FE013197B490BB20D2
:10185000C9F00150110991F0C6010E942F137C01BB
:1018600097FD0CC00E9406139927EB2DF0E08E1710
:101870009F0749F3B601C7010E940514C258D14021
:1018800051F603C0CF57D14029F080E090E0A0E8A6
:10189000BFE704C080E090E0A0ECBFE7BC01CD0151
:1018A000B8C0412C512C3201E12CF12C2C2F2053AB
:1018B0002A3010F5E92DE260BE2E892D887092FE47
:1018C00006C0811120C0FFEFEF1AFF0A1CC0882359
:1018D00019F081E0E81AF10840E2C301B2010E9468
:1018E0005B0A2B013C01683979498949994158F0D3
:1018F000F92DF660BF2E07C02E3F89F493FC0FC070
:10190000292D2860B22E0150110941F0C6010E9414
:101910002F13EC019B2C97FFC9CF01C09B2C91FE8C
:101920007ACFCE018F7D99278534910509F042C089
:10193000580181E0A81AB10809F46DCFC6010E94D0
:101940002F13EC0197FD67CF99278B32910529F072
:101950008D9769F4E92DE0619E2E5801F2E0AF1AEF
:10196000B10809F458CFC6010E942F13EC01CE0133
:10197000C0970A9708F04FCF8501A12CB12CB50173
:10198000BB0C880B990B2C2F205340E20E945B0A62
:101990005B010150110939F0C6010E942F13EC01BF
:1019A000C0970A9760F394FE03C0B194A194B10864
:1019B000EA0CFB1C012B31F0D7FD04C0B601CE01AF
:1019C0000E940514C301B2010E943C0FF7FE06C03D
:1019D000F194E194F108CBE9D1E002C0C3EBD1E08E
:1019E0006E0128E1C21AD10800E210E0E016F1060B
:1019F00050F0FE0125913591459154910E94CA0FF6
:101A0000E01AF10AF3CF249716950795CC16DD0658
:101A100069F797FE05C0DC01CB01B058BC01CD01D0
:101A20002114310429F0F10160837183828393834F
:101A300081E0DF91CF911F910F91FF90EF90DF90A8
:101A4000CF90BF90AF909F907F906F905F904F909E
:101A50003F902F900895A0E0B0E0E1E3FDE00C940A
:101A600082115C01EB014A01FC0117821682612C94
:101A7000F5010381FE0103FD859103FF8191182F7C
:101A8000EF01882309F40FC190E00E94FD12892B19
:101A900021F0C5010E94820AEBCF153241F4FE010C
:101AA00003FD159103FF1191EF01153281F4C5017A
:101AB0000E942F1397FDF5C0412F50E09C01332762
:101AC00024173507A9F2B5010E940514ECC01A329B
:101AD00041F403FD159103FF1191EF0177247394F5
:101AE00001C0712CE12CF12C20ED210F2A3088F45B
:101AF000F72DF2607F2EB70180E090E040E20E9477
:101B00005B0A7B01FE0103FD159103FF1191EF01BB
:101B1000EBCF71FE04C0E114F10421F4C4C0EE2443
:101B2000EA94FE2C183619F01C3661F014C0FE0140
:101B300003FD159103FF1191EF01183661F4872D14
:101B40008860782E972D9460792EFE0103FD159103
:101B500003FF1191EF01112309F4A5C0612F70E07B
:101B60008AE691E00E940E13892B09F49CC070FC58
:101B700007C0F401C080D180C40102964C0102C0AC
:101B8000C12CD12C1E3651F4F5014681578160E0FD
:101B900070E0272DC6010E944F0A6ACF1336B9F4B0
:101BA00071FC03C0EE24E394F12CC5010E942F13B5
:101BB00097FD77C0C114D10429F0F6018083C601D6
:101BC00001966C0191E0E91AF10879F766C01B35BE
:101BD00059F49E01A601B701C5010E94250BEC0135
:101BE000892B09F05AC054C0C5010E94820A97FD92
:101BF00058C01F36E1F140F41436A9F11936D1F17D
:101C0000183509F03EC02BC01337A9F018F410376F
:101C100031F137C0153739F1183709F132C0C11425
:101C2000D10429F0F6010083C60101966C0191E010
:101C3000E91AF10871F0C5010E942F138C0197FD7C
:101C400008C00E94FD12892B51F3B501C8010E9402
:101C50000514C114D10409F1F60110821EC0F72D3C
:101C6000F0647F2E07C0872D8062782E03C0972DE9
:101C70009061792E272DA601B701C5010E949B0A0C
:101C800005C0A601B701C5010E94E70B811105C07F
:101C9000F5018381807329F406C070FCE9CE63945A
:101CA000E7CE662019F0862D90E002C08FEF9FEFFF
:101CB000CDB7DEB7EEE00C949E115058BB27AA2793
:101CC0000E94750E0C94900F0E94820F38F00E94B3
:101CD000890F20F039F49F3F19F426F40C947F0FFC
:101CE0000EF4E095E7FB0C94790FE92F0E94A10F09
:101CF00058F3BA17620773078407950720F079F441
:101D0000A6F50C94C30F0EF4E0950B2EBA2FA02D60
:101D10000B01B90190010C01CA01A0011124FF2798
:101D2000591B99F0593F50F4503E68F11A16F04093
:101D3000A22F232F342F4427585FF3CF4695379592
:101D40002795A795F0405395C9F77EF41F16BA0B57
:101D5000620B730B840BBAF09150A1F0FF0FBB1F05
:101D6000661F771F881FC2F70EC0BA0F621F731F4E
:101D7000841F48F4879577956795B795F7959E3FAB
:101D800008F0B0CF9395880F08F09927EE0F97953C
:101D9000879508950E94DE0E0C94900F0E94890F83
:101DA00058F00E94820F40F029F45F3F29F00C9414
:101DB000790F51110C94C40F0C947F0F0E94A10F46
:101DC00068F39923B1F3552391F3951B550BBB276A
:101DD000AA2762177307840738F09F5F5F4F220FAF
:101DE000331F441FAA1FA9F335D00E2E3AF0E0E8A6
:101DF00032D091505040E695001CCAF72BD0FE2FF0
:101E000029D0660F771F881FBB1F26173707480783
:101E1000AB07B0E809F0BB0B802DBF01FF2793583B
:101E20005F4F3AF09E3F510578F00C94790F0C9477
:101E3000C40F5F3FE4F3983ED4F38695779567959A
:101E4000B795F7959F5FC9F7880F911D9695879570
:101E500097F90895E1E0660F771F881FBB1F62178F
:101E600073078407BA0720F0621B730B840BBA0B4D
:101E7000EE1F88F7E0950895E89409C097FB3EF4BB
:101E800090958095709561957F4F8F4F9F4F9923C7
:101E9000A9F0F92F96E9BB279395F6958795779545
:101EA0006795B795F111F8CFFAF4BB0F11F460FF05
:101EB0001BC06F5F7F4F8F4F9F4F16C0882311F05D
:101EC00096E911C0772321F09EE8872F762F05C071
:101ED000662371F096E8862F70E060E02AF09A950C
:101EE000660F771F881FDAF7880F9695879597F901
:101EF000089597F99F6780E870E060E008959FEF8C
:101F000080EC089500240A94161617061806090690
:101F1000089500240A94121613061406050608955F
:101F2000092E0394000C11F4882352F0BB0F40F4E7
:101F3000BF2B11F460FF04C06F5F7F4F8F4F9F4F27
:101F4000089557FD9058440F551F59F05F3F71F0A9
:101F50004795880F97FB991F61F09F3F79F0879510
:101F60000895121613061406551FF2CF4695F1DF99
:101F700008C0161617061806991FF1CF8695710529
:101F8000610508940895E894BB2766277727CB015D
:101F900097F908950E94DD0F0C94900F0E94820F14
:101FA00038F00E94890F20F0952311F00C94790FDE
:101FB0000C947F0F11240C94C40F0E94A10F70F396
:101FC000959FC1F3950F50E0551F629FF001729FDE
:101FD000BB27F00DB11D639FAA27F00DB11DAA1FED
:101FE000649F6627B00DA11D661F829F2227B00D3A
:101FF000A11D621F739FB00DA11D621F839FA00DC5
:10200000611D221F749F3327A00D611D231F849F14
:10201000600D211D822F762F6A2F11249F5750406B
:102020009AF0F1F088234AF0EE0FFF1FBB1F661FE6
:10203000771F881F91505040A9F79E3F510580F0AF
:102040000C94790F0C94C40F5F3FE4F3983ED4F3E3
:10205000869577956795B795F795E7959F5FC1F753
:10206000FE2B880F911D9695879597F90895DB01B2
:102070008F939F930E947A10BF91AF91A29F800D82
:10208000911DA39F900DB29F900D1124089597FB71
:10209000072E16F4009407D077FD09D00E94E011B6
:1020A00007FC05D03EF4909581959F4F089570955B
:1020B00061957F4F0895052E97FB1EF400940E94B2
:1020C000721057FD07D00E94F41107FC03D04EF4A4
:1020D0000C94721050954095309521953F4F4F4F7D
:1020E0005F4F089590958095709561957F4F8F4FC4
:1020F0009F4F08950E941612A59F900DB49F900DBA
:10210000A49F800D911D11240895DF93CF931F93F9
:102110000F939A9DF02D219FF00D8B9DF00D8A9DC0
:10212000E02DF10D039FF00D029FE00DF11D4E9D7E
:10213000E00DF11D5E9DF00D4F9DF00D7F936F93AF
:10214000BF92AF925F934F93D5010E9416128B01FD
:10215000AC01D7010E941612EB01E80FF91FD6015E
:102160000E94D5102F913F91D6010E941612C60FE2
:10217000D71FE81FF91FAF91BF910E94D5102F9173
:102180003F910E941612C60FD71FE81FF91FD601F4
:102190000E941612E60FF71F9801BE01CF0111240D
:1021A0000F911F91CF91DF9108950E941612460F53
:1021B000571FC81FD91F08F431960895689401C0AD
:1021C000E894F92FF12B12F00C941211A0E0B0E07A
:1021D000ECEEF0E10C948411092E059422F40E9497
:1021E0006E11112392F4F0E80F26FFEFE094F094C3
:1021F00000951095B094C094D094A194BF0ACF0AD2
:10220000DF0AEF0AFF0A0F0B1F0B0E941D1107FCCC
:102210000E946E11CDB7DEB7ECE00C94A01168946B
:1022200001C0E8948F929F92CF93DF930E941D117B
:10223000DF91CF919F908F90089588249924F40185
:10224000E401B0E49F93AA279A158B049C04ED0542
:10225000FE05CF05D007A10798F4AD2FDC2FCF2FB7
:10226000FE2FE92D982C892E982F872F762F652FFA
:10227000542F432F322F2227B85031F7BF9127C058
:102280001B2EBF91BB27220F331F441F551F661FF4
:10229000771F881F991F881C991CEE1FFF1FCC1FDA
:1022A000DD1FAA1FBB1F8A149B04EC05FD05CE058C
:1022B000DF05A007B10748F08A189B08EC09FD0963
:1022C000CE09DF09A00BB10B21601A94E1F62EF4C0
:1022D0009401AF01BE01CD01000C08956095709589
:1022E0008095909530954095509521953F4F4F4F53
:1022F0005F4F6F4F7F4F8F4F9F4F08952F923F92A9
:102300004F925F926F927F928F929F92AF92BF9205
:10231000CF92DF92EF92FF920F931F93CF93DF93B1
:10232000CDB7DEB7CA1BDB0B0FB6F894DEBF0FBE0E
:10233000CDBF09942A88398848885F846E847D845B
:102340008C849B84AA84B984C884DF80EE80FD805D
:102350000C811B81AA81B981CE0FD11D0FB6F894D3
:10236000DEBF0FBECDBFED0108950F93083090F092
:10237000982F872F762F652F542F432F322F222708
:102380000850F4CF220F331F441F551F661F771FBD
:10239000881F991F0A95B2F70F9108952A0D3B1DCA
:1023A0004C1D5D1D6E1D7F1D801F911F08952A19F4
:1023B0003B094C095D096E097F09800B910B08955B
:1023C000AA1BBB1B51E107C0AA1FBB1FA617B7075B
:1023D00010F0A61BB70B881F991F5A95A9F7809577
:1023E0009095BC01CD010895A1E21A2EAA1BBB1B3A
:1023F000FD010DC0AA1FBB1FEE1FFF1FA217B307D1
:10240000E407F50720F0A21BB30BE40BF50B661FE6
:10241000771F881F991F1A9469F7609570958095AA
:1024200090959B01AC01BD01CF010895A29FB00121
:10243000B39FC001A39F700D811D1124911DB29FF8
:10244000700D811D1124911D0895283008F027E09A
:102450003327DA01990F311D87FD916000966105E0
:10246000710539F432602E5F3D9330E32A95E1F730
:1024700008959F3F30F080387105610509F03C5F99
:102480003C5F3D93913008F08068911DDF93CF93BE
:102490001F930F93FF92EF92192F987F9695E92F34
:1024A00096959695E90FFF27E653FF4F9927332717
:1024B000EE24FF24A701E70105900894079428F46F
:1024C000360FE71EF81E491F511D660F771F881F24
:1024D000991F0694A1F70590079428F4E70EF81EBB
:1024E000491F561FC11D770F881F991F661F06942D
:1024F000A1F70590079428F4F80E491F561FC71F2F
:10250000D11D880F991F661F771F0694A1F70590AC
:10251000079420F4490F561FC71FD81F990F661F35
:10252000771F881F0694A9F784911095177041F0C2
:10253000D695C79557954795F794E7941A95C1F79F
:10254000E0E7F0E0689415901591359165919591CB
:1025500005907FE27395E118F10A430B560BC90B06
:10256000D009C0F7E10CF11E431F561FC91FD01D33
:102570007EF4703311F48A95E6CFE894015030F080
:10258000080F0AF40027021708F4202F2395022FC2
:102590007A3328F079E37D932A95E9F710C07D938B
:1025A0002A9589F606949795679537951795179408
:1025B000E118F10A430B560BC90BD00998F023958B
:1025C0007E9173957A3308F070E37C932013B8F70B
:1025D0007E9170617D9330F0839571E37D9370E31C
:1025E0002A95E1F71124EF90FF900F911F91CF9161
:1025F000DF91992787FD9095089591110C947C1493
:10260000803219F089508550C8F7089591110895C6
:1026100081548A5108F4805E855A0895FC01059022
:10262000061621F00020D9F7C00108953197CF0197
:102630000895FC010590615070400110D8F7809515
:1026400090958E0F9F1F0895FC016150704001907E
:102650000110D8F7809590958E0F9F1F0895CF9306
:10266000DF93EC012B8120FF33C026FF0AC02F7BB4
:102670002B838E819F8101969F838E838A8190E038
:1026800029C022FF0FC0E881F9818081082E000C4B
:10269000990B009719F420622B831AC03196F983A5
:1026A000E8830EC0EA85FB85099597FF09C02B8159
:1026B000019611F080E201C080E1822B8B8308C07B
:1026C0002E813F812F5F3F4F3F832E83992702C08A
:1026D0008FEF9FEFDF91CF9108950F931F93CF93CB
:1026E000DF93FB01238121FD03C08FEF9FEF2CC0FF
:1026F00022FF16C046815781248135814217530736
:1027000044F4A081B1819D012F5F3F4F318320832D
:102710008C93268137812F5F3F4F3783268314C0E8
:102720008B01EC01FB010084F185E02D0995892BDB
:10273000E1F6D80116968D919C9117970196179600
:102740009C938E931697CE01DF91CF911F910F919D
:102750000895A0E0B0E0EFEAF3E10C948E11AE0131
:102760004B5F5F4FFA0161917191AF018091AE02B1
:102770009091AF020E94D206E2E00C94AA110F934E
:102780001F93CF93DF93E091AE02F091AF022381CC
:1027900021FF1BC08C01D0E0C0E0F80181918F01C6
:1027A0006091AE027091AF02DB011896ED91FC9141
:1027B0001997882331F00995892B79F3DFEFCFEF53
:1027C000ECCF8AE00995892B19F08FEF9FEF02C0BB
:1027D0008D2F9C2FDF91CF911F910F910895A0E035
:1027E000B0E0E5EFF3E10C948E11AE014B5F5F4F6B
:1027F000FA0161917191AF018091AC029091AD02AB
:102800000E942B0DE2E00C94AA11FB01238120FF12
:1028100012C026FD10C08F3F3FEF930761F0828307
:102820002F7D20642383268137812150310937830E
:102830002683992708958FEF9FEF0895FA01AA271D
:10284000283051F1203181F1E8946F936E7F6E5FF3
:102850007F4F8F4F9F4FAF4FB1E03ED0B4E03CD0A1
:10286000670F781F891F9A1FA11D680F791F8A1F84
:10287000911DA11D6A0F711D811D911DA11D20D0EB
:1028800009F468943F912AE0269F11243019305DA5
:102890003193DEF6CF010895462F4770405D419396
:1028A000B3E00FD0C9F7F6CF462F4F70405D4A33E3
:1028B00018F0495D31FD4052419302D0A9F7EACFAB
:1028C000B4E0A6959795879577956795BA95C9F7DA
:1028D00000976105710508959B01AC010A2E0694CD
:1028E0005795479537952795BA95C9F7620F731F86
:1028F000841F951FA01D0895992788270895F8948F
:02290000FFCF07
:10290200506F64616A2061663A2000256600256680
:102912000D0A0A00506F64616A2062663A20004D17
:1029220065617375726564206164646974696F6E50
:102932002074696D653A2025750D0A004D65617335
:1029420075726564207375627472616374696F6E07
:102952002074696D653A2025750D0A004D65617315
:1029620075726564206D756C7469706C69636174ED
:10297200696F6E2074696D653A2025750D0A004DE8
:1029820065617375726564206469766973696F6ED7
:102992002074696D653A2025750D0A000D0A577974
:1029A200626965727A20666F726D61743A0D0A30DF
:1029B2003A20696E74385F740D0A313A20696E7478
:1029C20031365F740D0A323A20696E7433325F74A5
:1029D2000D0A333A20696E7436345F740D0A343A44
:1029E20020666C6F61740D002568686400506F6426
:1029F200616A2061383A200025640D0A0A00506F8E
:102A020064616A2062383A2000506F64616A206112
:102A120031363A2000256400506F64616A206231C9
:102A2200363A2000506F64616A206133323A2000E6
:102A3200256C6400256C640D0A0A00506F64616A9B
:102A4200206233323A2000506F64616A206133326F
:102A5200682028686578293A2000256C7800256C62
:102A6200780D0A0A00506F64616A206133326C206B
:102A720028686578293A2000506F64616A206233C1
:102A820032682028686578293A2000506F64616AAC
:0E2A9200206233326C2028686578293A2000D3
:00000001FF
