S01000007A6164616E6965322E7372656306
S11300000C9434000C9449000C9449000C9449005D
S11300100C9449000C9449000C9449000C94490038
S11300200C9449000C9449000C9449000C94490028
S11300300C9449000C9449000C9449000C94490018
S11300400C9449000C9449000C9449000C94490008
S11300500C9449000C9449000C9449000C944900F8
S11300600C9449000C94490011241FBECFEFD8E032
S1130070DEBFCDBF11E0A0E0B1E0E6E1F2E002C0F6
S113008005900D92A234B107D9F70E9467000C9431
S113009009010C94000080E480937C0081E080934B
S11300A07E00EAE7F0E087E08083808180688083D7
S11300B008958FEC97E0909387008093860082E800
S11300C0809380008AE180938100219A0895CF93E0
S11300D0DF93CDB7DEB7C254D1090FB6F894DEBFB3
S11300E00FBECDBF80E480937C0081E080937E00CE
S11300F087E080937A0080917A00806880937A0008
S11301008FEC97E0909387008093860082E8809339
S113011080008AE180938100219A82E4E0E0F1E0AA
S1130120DE01119601900D928A95E1F790E3C92EB4
S113013095E7D92EE12CF12C80917A00806480938C
S11301407A0080917A0086FDFCCF2091780030916E
S11301507900293C310528F4109289001092880016
S1130160EBCF243F81E0380748F0809186009091DE
S113017087009093890080938800DECFA0E8BCE0DC
S11301800E94FA00745C89409109A70196010E94BB
S1130190D800220F331FE1E0F0E0EC0FFD1FE20F67
S11301A0F31F808191819093890080938800C4CF4C
S11301B0A1E21A2EAA1BBB1BFD010DC0AA1FBB1F67
S11301C0EE1FFF1FA217B307E407F50720F0A21BD9
S11301D0B30BE40BF50B661F771F881F991F1A9446
S11301E069F760957095809590959B01AC01BD0170
S11301F0CF010895A29FB001B39FC001A39F700DCA
S1130200811D1124911DB29F700D811D1124911D1A
S10902100895F894FFCFED
S1130216000007000F00180022002D0039004700D7
S1130226570068007B009100A900C400E1000301A7
S1130236280151018001B301EC012D027402C402AC
S11302461D038003EF036B04F5048E053A06F906D5
S1050256CF07CC
S9030000FC
