:100000000C9434000C943E000C943E000C943E0082
:100010000C943E000C943E000C943E000C943E0068
:100020000C943E000C943E000C943E000C943E0058
:100030000C943E000C943E000C943E000C943E0048
:100040000C943E000C943E000C943E000C943E0038
:100050000C943E000C943E000C943E000C943E0028
:100060000C943E000C943E0011241FBECFEFD8E04C
:10007000DEBFCDBF0E945C000C948D000C9400008C
:1000800080E480937C0081E080937E00EAE7F0E0EA
:1000900087E0808380818068808308958FEF90E07F
:1000A000909387008093860082E8809380008BE1A4
:1000B00080938100219A089580E480937C0081E000
:1000C00080937E0087E080937A0080917A00806838
:1000D00080937A008FEF90E0909387008093860062
:1000E00082E8809380008BE180938100219A809147
:1000F0007A00806480937A0080917A0086FDFCCF3C
:10010000809178009091790096958795969587953E
:0E0110009093890080938800EACFF894FFCF87
:00000001FF
