S01000007A6164616E6965332E7372656305
S11300000C9443000C9458000C9458000C94580021
S11300100C9458000C9458000C9458000C945800FC
S11300200C9458000C9458000C9458000C945800EC
S11300300C9458000C9458000C9458000C945800DC
S11300400C9458000C9458000C9458000C945800CC
S11300500C9458000C9458000C9458000C945800BC
S11300600C9458000C945800D500D000CB00C60066
S1130070C100BA00B300AC00A5009E009700900038
S11300808700DA00E10011241FBECFEFD8E0DEBF05
S1130090CDBF11E0A0E0B1E0E2E8F2E002C00590DB
S11300A00D92A234B107D9F70E94EA000C943F01E3
S11300B00C94000080E480937C0081E080937E00B7
S11300C0EAE7F0E087E08083808180688083089598
S11300D00097E1F021E0EFEFE20F80FF0BC04E2F1D
S11300E050E0FA013197EF30F10560F035E03A95D0
S11300F0F1F7000096958795203141F02F5F009726
S113010051F70895EC5CFF4F0C9439010895EFEF1B
S1130110FFE73197F1F700C0000096958795EECF81
S1130120EFEFFFE33197F1F700C00000F6CFEFEFF8
S1130130FFE13197F1F700C00000EFCFEFEFFFE0F0
S11301403197F1F700C00000E8CFEFEFF7E0319707
S1130150F1F700C00000E1CFEFEFF3E03197F1F7E2
S113016000C00000DACFEFEFF1E03197F1F700C003
S11301700000D3CFEFEFF0E03197F1F700C00000BB
S1130180CCCFFAEAFA95F1F700C0C7CFE5E5EA95D6
S1130190F1F70000C2CF3AE23A95F1F700C0BDCFC3
S11301A0F5E1FA95F1F70000B8CFEAE0EA95F1F746
S11301B000C0B3CFEFEFFFEF3197F1F700C00000BD
S11301C0ACCFF9E929E931E0F15020403040E1F7C2
S11301D000000895CF93DF93CDB7DEB7C254D109A1
S11301E00FB6F894DEBF0FBECDBF80E480937C00D1
S11301F081E080937E0087E080937A0080917A008A
S1130200806880937A00549A82E4E0E0F1E0DE01B1
S1130210119601900D928A95E1F700E117E2809121
S11302207A00806480937A0080917A0086FDFCCF06
S1130230E0917800F0917900F695E795F295E295D2
S1130240EF70EF27FF70EF27EE0FFF1F81E090E0C4
S11302508C0F9D1FE80FF91FE080F1805C9AC701A5
S11302600E9468005C98C8018E199F090E9468006A
S1130270D6CFEE0FFF1F0590F491E02D0994F8946A
S1050280FFCFAA
S1130282000024004C007900AB00E3002101670167
S1130292B4010B026B02D7024F03D5036A041005A3
S11302A2CA059A0681078308A209E30A490CD90DF3
S11302B2960F8711B1131B16CD18CE1B281FE522EA
S10502C21027FF
S9030000FC
