S01000007A6164616E6965332E7372656305
S11300000C94DE1C0C94E81C0C94E81C0C94E81C66
S11300100C94E81C0C94E81C0C94E81C0C94E81C4C
S11300200C94E81C0C94E81C0C94E81C0C94E81C3C
S11300300C94E81C0C94E81C0C94E81C0C94E81C2C
S11300400C94E81C0C94E81C0C94E81C0C94E81C1C
S11300500C94E81C0C94E81C0C94E81C0C94E81C0C
S11300600C94E81C0C94E81C808080808080808044
S1130070808080808080808080808080808080807C
S1130080808080808080808080808080808080806C
S1130090808080808080808080808080808080805C
S11300A0808080808080808080808080808080804C
S11300B0808080808080808080808080808080803C
S11300C0808080808080808080808080808080802C
S11300D0808080808080808080808080808080801C
S11300E0808080808080808080808080808080800C
S11300F080808080808080808080808080808080FC
S113010080808080808080808080808080808080EB
S113011080808080808080808080808080808080DB
S113012080808080808080808080808080808080CB
S113013080808080808080808080808080808080BB
S113014080808080808080808080808080808080AB
S1130150808080808080808080808080808080809B
S1130160808080808080808080808080808080808B
S1130170808080808080808080808080808080807B
S1130180808080808080808080808080808080806B
S1130190808080808080808080808080808080805B
S11301A0808080808080808080808080808080804B
S11301B0808080808080808080808080808080803B
S11301C0808080808080808080808078807880803B
S11301D0808080808080808080808078807878783B
S11301E0787878787878787880878787808080872F
S11301F08E87786A554E4E4E5C55554E4040475C4E
S1130200788E9CA39C958E8E959CA39C9C9595958D
S1130210958E8E80715C4E47474E5C5C5C554740C2
S1130220475571879CA39C958E8E959CA3A39C9CFB
S113023095958E8E8780716A5C55554E55555555EA
S11302404740404763788E9CA39C958E8E95959CE1
S11302509C95958E8E8E8E87807871635C554E4EFC
S11302604E4E4E4E47474E637895A3AAA39C8E8E5E
S11302708E95959C9C9C95958E8787808080786AC6
S1130280634E4747474E4E4E474E5C71879CAAA328
S11302909C8E8787878E959C9C958E8E8E8E8E9550
S11302A095877863554740404747474047556A8E8E
S11302B09CB1B1A39587808087959C9C9C958E8EDC
S11302C08E959C9C95876A5C4747474E4E554E4792
S11302D04E5C7895AAB1A39C878080878E9595956E
S11302E08E8E8E959CA3AAA395806A5C4E47474741
S11302F04747404755718EA3B1B1A38E807878806B
S113030080878787878795A3AAB1B1A395806A5C04
S11303104E47404039394047637895AAB1AA95873A
S1130320787871787878787880879CB1BFBFB8AADC
S113033095807163554E39322A32404E6A879CAAA1
S1130340AAA39587787171716A6A6A71808EA3B85D
S1130350C6C6BFAA9C8E8071634E40322A32404E7C
S1130360638095A3A39C95877871716A6363636ABC
S1130370788EAABFD4D4C6B8A39580786A5547327C
S11303802A2A394063788EA39C9C958780786A6377
S11303905C55555C6A8EAAC6DCDCD4C6B1A39580D4
S11303A0715C4732232332394E6A7895A39C958732
S11303B08078716A5C4E474E6380B1C6E3E3D4CD66
S11303C0BFB8A395785C40322A232A2A3255718E0D
S11303D0A3A395878078786A5C4739405580AAD46E
S11303E0E3E3DCCDCDC6B89C785C473939322A23A7
S11303F023396387A3A38E787178808063472A2A80
S11304005587B8DCDCD4D4D4E3E3C6A371554E4E8F
S11304104E472A15152A638EA39C80717887958E82
S11304205C391C2A5C95B8C6C6C6D4F1F8EABF8EFE
S1130430715C636A55401C0E15406A8795878080FD
S11304408E9C9C80552A23325C879CAAB8C6EAFFFE
S1130450FFEAB895808080785539231C1C325C7182
S11304608087808795958E784E3232396380879C59
S1130470B1D4F1FFF8D4B89C958780634E393239F2
S1130480322A395C71958E8080878071633932405D
S113049055718795AACDEAFFF8E3CDBFA39587717F
S11304A0634E39322A152A5563718071788E8771AB
S11304B05C403247555C71809CC6DCE3EAEADCCDE3
S11304C0B89C9580715C47392A1C1C475C63717128
S11304D0718787715C4E474E555C63718EB1C6D48B
S11304E0DCE3E3DCBFAA9C8E806A554739231C32C7
S11304F04E55555C6A788071635C636A5C555C71C7
S11305008EA3A3B1CDDCD4CDBFB1B1A38E7871637A
S11305104E3932323940404055635C5C636A716ADB
S1130520636A7180878795A3B1B1B1B1B8B1AAAA42
S1130530A39C9587716A634E394040403940474EC9
S1130540555C6A716A6A7180808087959CA3A3AAAE
S1130550B1B8B8B8B1B1B1AA9C95877871635C554C
S1130560554E4E474E4E4E555C5C5C6A71717880B8
S11305708795959CA3B1B8BFBFBFBFBFBFB1AA9CAD
S1130580958E80716A6A6A6355555555555555550A
S11305905C5C6363717880878E9CA3AAB1B8BFC684
S11305A0C6BFBFB8B1AA9C958E80786A6A635C5C4A
S11305B05C555C555555555C5C5C636A7178808705
S11305C0959CA3AAAAB1B1B1B1AAAAA39C958E8EF7
S11305D08E7887787171636A635C635C5C5C636A60
S11305E06A717880808795959CA39CA3A3A3A39C00
S11305F0A39C95958E8E878078786A6A715C6A630D
S11306005C6A636A6A717878808E8E959CA3A3AACB
S1130610AAAAAAAAA3AAA39C958E8E8078716A63BB
S11306205C5555554E4E55555C5C636A71787880BF
S11306308E95959CA3AAB1B1B1B1AAAAA3958E80B7
S1130640716A554E47474040404047474E63636A8E
S11306507178808787959C9CA3AAAAB1B1AAAAA302
S11306609C9587806A554E4E403240393940404E01
S11306705C5C6A7178878E8EA39C9CAAAAAAAAA3A2
S1130680A3A3958E87806A634E554E3947473240FF
S113069047474E5C636A7187878EA3A39CAAB1AA5D
S11306A0AAAAA3959C878080715C555C55404E47EF
S11306B039474E47475C6A5C6A878087AAA3A3B11F
S11306C0B8B1B1B8B1A3AA9C8E87806A5C6355396E
S11306D04E47323947404755635C6A878087AAA3EF
S11306E0A3B8BFBFC6C6BFB1B8AA959587635C550A
S11306F04E4039473239554047635C6A78808E8E64
S113070095AAA3B1BFB8BFC6B8B8B8AA9C95807162
S1130710634E4E4E3247403255554E63636387787D
S1130720878E8E95A3A3B1B1B8B8B8B8B1AA9C9579
S11307308E716A554E4E39404740555C556A6A6A17
S11307407878788087878E9C9CA3B1B1AAB8AAAA2E
S1130750A3958E786A63474E403240474755636A93
S11307606A7880788E87878E8E959C95A3AAAAB185
S1130770AAAAAA9587876A5C554747393240474EEB
S1130780636A718787808E8E878E958E959C9CA3D5
S1130790AAB1AAAAAAA38E8E80635C4E40473940B0
S11307A04E405C716A878E879595958E8E958E8E58
S11307B0A39CA3AAB1B1AAAAAA8E8E805555403291
S11307C0392A4047476A71719C958E9C8E958E801C
S11307D08E80809C959CB1B1AAB1B19C8E806A4EEA
S11307E0472A32322A474E557880879C9C959C87AD
S11307F0878078808087959CA3B8B8B1B1AA8E878A
S11308006A5C473223322332474E63808795A39C28
S11308109C958E878078808E8E95B1B1BFBFB1AA2A
S1130820A387785C47321C23232A395563788E9C2E
S1130830A3A3A3958787807878809595A3BFC6C620
S1130840C6B1AA9571634723150E15232A476A7802
S11308508EAAAAAAAA9C8E80717171788095AAB872
S1130860CDD4CDC6B1A38063472A0E07001C2A3914
S11308705C8087AAB1B1B1A3958778716A6A7880E0
S113088095B1B8C6CDBFB1AA95715C402A0E0E07CA
S11308902332476A878EB1B1AAAA9C8778636363BF
S11308A05C788095B1B8BFC6B8A39C87634E321CF0
S11308B00E0E0E32475580959CAAAAA39587786A96
S11308C05C5C636A8095A3BFCDC6C6B8A38E785519
S11308D0402A150E0E1C32555C8095959CA38E877C
S11308E0786A635C5C6A6A80A3AAB8CDC6B8B19C16
S11308F0877155403223151C23395C6A7895959588
S113090095877871635C5C5C6371789CB1B1B8BFA6
S1130910B1A39580715C47403223323940717878B5
S11309209C9C8E8E877171635C63636A788095AAE0
S1130930B1AAB1AA9C8E80715C4740392A394047DC
S113094071808095A395958E7871716A6A7880809C
S11309508E95A3AAA3A3A38E7878714E474039320B
S11309603940557878879C9C8E95958078807880DE
S113097087959595A3AAA3AAA3958E786A634E40FA
S113098039323239405C7878879C9C959595877884
S11309908080878E9595A3A3A3AAA39C9C87787136
S11309A05C4740323239324063717895A39C9C9CF9
S11309B0958E8780878E959C9CA3A3A39CA3A387D5
S11309C0787863554E39394739405C6A808095A3FD
S11309D09C8E95958E8E878E9CA39CAAB1A395958B
S11309E09C958071716A5C4E4E554747556378807B
S11309F087959C958E95958E8E95959CA3A3A3AA79
S1130A00A395959C8E716A6A63554755554747551A
S1130A106A8080879C9C8E95959C958E959CA3A3BB
S1130A20AAB1A395959587807163635C4E5C5C471E
S1130A30475C556A80808E9C95959C9C9C9C9C955B
S1130A409CA3A3A3AAA3958E878080635C6A635545
S1130A505C5C4E55555C7180808E9C9C9CA3A3A3CA
S1130A60A3A39CA3AAAAA3A39C95878078715C5C8A
S1130A706A635C5C554E4E4E637178808E9CA3A372
S1130A80A3AAAAAAA3A3AAAAA3A39C9C8E80786AB9
S1130A905C63635C5C635C55554E557171788795F6
S1130AA095A3A3A3AAAAA3A3AAA3A39C9C9C87805F
S1130AB078715C556363635C63635C4E4E63716A17
S1130AC0788E9595A3AAA3AAA3A3AAAA9C9CA39C47
S1130AD087878071634E55636355636A5C4E4E55D8
S1130AE0636A6A80958E95AAB1AAA3AAAAAAA395B5
S1130AF09CAA8E788778634E4755634E4E6A634E40
S1130B004E555C6A636A959C8E9CB1B1A3AAAAB146
S1130B10AA9595AA9C878787715C47475C5C475573
S1130B20635547474E556A6A718E958E9CAAAAA34F
S1130B30AAAAAAA395A3A3958787806A5C4E4E5C54
S1130B40554755554747474E636A6A8095959CAA11
S1130B50AAAAAAA3A3AA9C9C9C9C9C8E8080715543
S1130B604E55554E4E4E4E47474755636A718795CD
S1130B70959CB1AAAAAAA3A3A39C9C9C9C8E8780A3
S1130B80786A5C555C4E47555540474E475C6A6AE7
S1130B90808E8E9CAAA3A3AAAA9C9CA39C9C959598
S1130BA08E8780716A6355554E4E4E474047404785
S1130BB0636A6A808E95A3A3A3A3A39C959C9C9C23
S1130BC08E95958E8780717163555C4E404E473982
S1130BD0474740636A6A8095959CA3A3A39C9C9510
S1130BE095958E95958E878780787863636347475C
S1130BF04E3939404047636A78878E959CA3A3A3F6
S1130C00959C9C958E958E8E8E878E8E808071712C
S1130C10634E474E403940474E636A788795959CAA
S1130C20A3A39C959C958E8E8E9595878E9C958E70
S1130C308780806A555C4E40404047555C637887A6
S1130C408795A39CA39C959C9587958E878E80877A
S1130C509C8E808780786A5C5C5547404E47555C23
S1130C6063808080959C9C9C9C9CA3958E9C8E8785
S1130C708E80878E80808071716A5C5C5C555C5C60
S1130C805C6A6A6A78787880808087878E8E8E8E98
S1130C909595958E8E8E878787808078717178710F
S1130CA07878788078808080808078788078808078
S1130CB0788787808787878787808780808E8780EB
S1130CC0878787878780808078787171716A6A6A7C
S1130CD06A6A716A71717878788080808087808789
S1130CE0878787878E8E8E8E8E8E87878780787192
S1130CF06A6A6363636363636A6A71717878808024
S1130D00808080878787878787878E8E8E8787876F
S1130D1080808078716A6A636363636363636A6A09
S1130D20717171787878808087878787878E8E8EB7
S1130D308E87878787808078787171716A6A6A6A1A
S1130D406A6A6A6A6A6A6A71717178788080878768
S1130D50878E8E8E8E8E878787878080807878783E
S1130D60787171717171716A6A6A6A6A6A6A717199
S1130D70717878808087878787878787878780804F
S1130D808078787878787878787171717171717108
S1130D9071717171717178787880808080878787AC
S1130DA0878787808080787878787878787878787A
S1130DB078787878787878787878787878787878AF
S1130DC07880808080808080808080808080808027
S1130DD0807878787878788080808080808080803F
S1130DE08078787878787878787878808080808748
S1130DF087808080808080808080808080808080E8
S1130E0080808080808080808080808080787878F6
S1130E1078788080808080808080808787878787BB
S1130E2087878787808080808080808080808080A2
S1130E3080808080808080808078787878808080CE
S1130E408087878787878787878787878787808043
S1130E5080808080808078788080808080807878AE
S1130E607878788080808080878787878787878E57
S1130E708E8E8E8E8E878780808080808080809505
S1130E8078787871807180717880788080808080B3
S1130E90878087878787878E8E87878780878780E5
S1130EA080788080788078787878717878787878A5
S1130EB078877880808087808787808E8E808087FF
S1130EC0808087807880787878787871786A787884
S1130ED0787178807180787880788778878080804E
S1130EE0807880807880807878787180718078715B
S1130EF08078807878807187788078877880877820
S1130F0080877878788080718E787880787871801E
S1130F10788071808071877187876A956A788E710D
S1130F20807878807178806A807178787878807138
S1130F3078786A8E6A8080786A8E63877178808018
S1130F4071878078876A8771787871807171876A10
S1130F5078806A8071718E637887716A8E5C95710E
S1130F606A9C636A8E7180718087558E63806A8003
S1130F70718071788763877171808071806A9555FB
S1130F80876A786380786A718E5C80716A806A7817
S1130F90786A71876A718763954E9C8063956387CD
S1130FA06A8071806A786A8E558E63805CA34795E7
S1130FB05C806A80639547955C6A806380786A8EFA
S1130FC0806A8E71786A8E5C875C8E6363877171C8
S1130FD0787863876380806A80787178806A806AB1
S1130FE0877178877880875C956A806A80638E4E83
S1130FF09563806A806A8E638E786A806A786A7183
S113100071805C9563877187808071956A78876A3F
S1131010717171876A6A956A6A8071786A7878638F
S11310206A80717171808063788763807878787161
S11310307187636A80716A80788071808078718733
S1131040806A878071717171715C71715C6A786397
S11310506A6A71786A7878717887808080878780F7
S113106095878E95878E8071786A5C6A5555554749
S113107055635C6A787887808787878080787180F9
S113108078808787959595A39595958778716363FF
S11310905C5C5C5555556A7871808787878087804A
S11310A07178786A717180878E95A39CA3A3A3A39A
S11310B095959578716A6A716A6A786A5C718078C4
S11310C078878E80808080716A636A5C6A8080958C
S11310D0A3A3B1B8AAB1AAA39C958E87717178789D
S11310E0716A7171636A8787808E8E877871716384
S11310F0555C636A78879CB1AAB8BFB8AAB1AA95AF
S113110095958E8078787178786A716A5C6A807156
S1131110718787717171635C555C6A8087A3B1AA1A
S1131120B8B1AAA39C95959595958E878078717191
S113113078716363556380786A80807171636363D7
S11311405563808795B1AAAAAA9CA39C959CA3AA3F
S1131150AAA3A39580786A637178635C5C638071E9
S11311607180786A635C55555571808795A3A3A3F4
S11311709C9CA3A3A3AAA3AAB1AA9C878078716309
S113118071877163636378786A7871635547474EF2
S1131190637878879C9C95958E8E959CA3B1AAAA1A
S11311A0B1AA9C8780807871717880634E4E5571A6
S11311B0716A6A6A634E474E637878878E958E8724
S11311C080878E8EA3B8B8AAAAB19C9587808780A1
S11311D06A6A6A6A4E404E6A80716A635C4E393943
S11311E05C808087878E878078878E9CAABFC6BFE5
S11311F0B8A395958E80878E807163555555475554
S1131200718071554E474039557187878087878033
S113121078788EA3B8B8BFB1A39C8E8E8E8E959C21
S113122095876A5547474E4E63787155473939401B
S1131230556A808E8E8780787178879CAAB8B8B1F9
S1131240A39C95958E959CA39C8771554E39394ED8
S1131250557178634E4039405C6A78878080807825
S113126071808795A3AAB8BFB8AA9C959C9C9C9CA6
S1131270958E80714E393240556371716355404784
S11312805571716A71788080787887959CAAB1B815
S1131290B8B1A3A3A3A3A39C959C95806A4E3939A6
S11312A039475C6A63554E404E5C636A636A808763
S11312B08780878E9CA3AAB1B8B8AAB1B1AAAAA301
S11312C09595958E785C474039324055636355391E
S11312D0394E5C5C5C5C6A8080878787959CA3A39D
S11312E0B1B8B8B8B1AAAAA395958E8E877863557C
S11312F04E40393247555C55474E555C5C555C6AE7
S1131300878E9595959CA3A3AAB1B8B8B8B8B1B186
S1131310A39C958E958E80715C5547393239474E22
S11313204E4E4E5C5C5C5C636A808E959C9C9C9C7F
S1131330A3AAB1B8B8B8B8B1B1AA9C958E8E8E8064
S1131340786A554E40393239404E5C5C5C5C5C6373
S1131350636A788087959C9C9C9C9CA3AAB1AAAA4A
S1131360AAAAAAA39C8E87878080786A63554E4771
S113137040394047555C5C5C5C636A6A7178878E6F
S1131380959C9C959C9CA3A3A3A3A3A3A3A39C9576
S11313908E87878780786A63554E40393940474E37
S11313A0555555555C636A7180878E95959C9C9CB8
S11313B0A3A3AAAAAAAAAAAAA39C958E8787807186
S11313C063554739322A2A3239474747474E555CD5
S11313D06A78808E959CA3AAAAB1B1B1B1B1B1B11A
S11313E0AAA39C958E8780786A5C4740322A2A2A71
S11313F03232394047475555637178878E9CA3AA8A
S1131400B1B1B8B8B8B8B8B1B1AAA39C9C9587805B
S113141078635547392A232A2A32393939404755BE
S11314205C6A71808795A3AAB1B8B8BFBFC6BFBFB5
S1131430B8B1AAA3A39C958E807163554739322A0B
S1131440323239393939474E5C637178808795A3D4
S1131450AAB1B1B8BFBFBFBFBFB1B1AAAAA39C957F
S11314608E807163554740323232323232323940E3
S113147047555C6A717887959CAAB1B8BFBFBFBF56
S1131480BFB8B1B1AAAAA39C9587807163554739A7
S11314903232323232323232404E55636A71808790
S11314A095A3AAB1B8B8BFBFBFBFBFB8B1AAAAA31A
S11314B09C8E87786A5C4E4739323232323232320D
S11314C039474E5C636A71808E95A3B1B1B8BFBFD2
S11314D0C6C6BFBFB8B8B1AAA39C8E87786A635545
S11314E047403939393239393940474E5C6371786C
S11314F087959CAAB1B1B8B8BFBFBFBFBFB8B8AADF
S1131500A39C958E87786A63554E4739393939409B
S11315104040474E555C6A7180878E9CA3AAB1B146
S1131520B1B8B8B8B8B8B8B1AAA39C958E87786A90
S113153063554E4740404040404747474E555C6ADC
S11315407180878E959CA3AAB1B1B1B8B8B8B8B868
S1131550B1AAA39C9C958E80786A63554E474740F8
S11315604747474E4E4E555C63717887878E9CA3E0
S1131570AAB1B1B8B8B8B8B8B8B1B1AAA39C958E9D
S1131580878071635C554E47474747474E4E5555D4
S11315905C63717880878E959CA3AAAAB1B1B1B11E
S11315A0B1B1B1AAAAA39C958E8078716A5C555595
S11315B04E47474E4E4E5555555C636A7178808749
S11315C08E959CA3AAAAAAB1B1AAAAAAA3A39C95E0
S11315D08E8E8078716A635C554E4E474E4E4E55E2
S11315E055555C5C636A717880878E959CA3A3A330
S11315F0AAAAA3A3A3A3A39C95958E878078716AB6
S11316006A635C55554E55555555555C5C636A7116
S1131610787880878E8E959C9CA3A3A3A3A3A3A371
S11316209C9C958E8E878078716A6A635C5C555544
S1131630555C5C5C636363636A6A71787880878EE7
S11316408E95959C9C9C9C9C9C9C9C95958E878738
S113165080787878716A6A635C5C5C5C5C5C5C630F
S113166063636A6A7178788087878E8E959595957D
S11316709C9C9C9C9C9C958E8E87808080787871A5
S1131680716A6A6363636363636363636A6A7171E0
S11316907178808787878E8E8E9595959C9C9C9576
S11316A095958E8E878780808080787871716A6A3C
S11316B06A6363636A6A6A6A717171787880808028
S11316C0878787878E8E8E9595958E8E8E87878752
S11316D08080808080807878787171717171717187
S11316E0717171717171717171787880808087877F
S11316F087878787878787878780878080808080A0
S11317008078787878787171717171717171717193
S11317107171717171787878787878808080808739
S11317208E95958E8E878787878E8E8E87878787FF
S1131730878080807871716A6A6A6A6A6A7171786E
S1131740787878787880808787878787878787877E
S11317508080807878787171717171716A6A6A6A4F
S11317606A6A6A6A71717171717878787871717165
S11317707178717171717171717171717171717847
S113178078787878787878787878787878787878D5
S11317907878787171717171717178788095A3A37B
S11317A09C87716A78808078716A71808787878E58
S11317B0959C9C878071717880878E8E87808080CD
S11317C0808078716A717880807880808E8E8E8730
S11317D07878788080807878808787806A63636A85
S11317E071716A6A636A7178808087878780808074
S11317F07878717178808087807878787871716A68
S11318006A6A7171716A6A6A7171717171717178E0
S1131810788078787878808080787171787880782A
S1131820787171787878717171717171716A6A7196
S11318307178787871717178787878787880808028
S113184078788080808080807878787878717171F9
S113185071717871716A6A71717171717878788057
S1131860808080808080808078787880808078789C
S1131870788080807878717178787878716A7171FD
S1131880787878717178788080808080878787877E
S113189080788080808080788080878E8E87807139
S11318A071788080787871717178787871717880C6
S11318B08E8E8E8787878E8E8780787880878787BD
S11318C08780878787878078787878787878717147
S11318D0716A6A6A6A7180878E95958E878780801F
S11318E0807878717178788080808078808087872C
S11318F08780807878788078787171717171717867
S11319008080878E8E8E87878080787871717171E0
S113191071716A71717880808787878787878780EC
S11319208078787878787871717171788087878712
S11319308787878780807871717171716A6A6A712B
S11319407880878E8E8E8E8E8E8E87807878788043
S113195080787171717878808787878E8E8E8E8E6D
S113196080807878787878716A6A71717880878EE7
S11319708E959595958E87878080808080807878F5
S1131980787880808087878E8E8E8E8E8787808001
S113199078787871717171717880878E95959C9C37
S11319A095958E87878080788080808080788080FD
S11319B080808787878E8E8E8787807878787878FE
S11319C07171717171788087878E8E8E8E8E8E87FD
S11319D08078787878808080807878808080808033
S11319E087878E8E87878080787878787171717117
S11319F07178788080878E8E958E878780807880B6
S1131A0080808080808780808078788080878787C6
S1131A10878080808078787871716A6A6A6A717167
S1131A208087878E8E8E8E87878080787878787886
S1131A3080808080808078787878808080808080C2
S1131A408078787878717171716A71717178808039
S1131A50878787878780807878717178788080809D
S1131A6078787878787878787880808080807878CA
S1131A7078787871716A6A6A6A7171787880808717
S1131A80878080808078787878787880808080807B
S1131A9078787878788080808080807878787171A0
S1131AA07171716A6A6A71717178808787878787B3
S1131AB08780808078787878788080787878717872
S1131AC0787878808080808078787871717171718D
S1131AD06A6A6A6A7171788080878787878780805D
S1131AE07878787878787878787871787878787879
S1131AF0788080808080787871717171716A6A6A87
S1131B006A71787880808087878787808078717110
S1131B107178787878787878787878787880808030
S1131B20808078787171717171717171717171786E
S1131B3078808087878787878080787878788080A6
S1131B4080807878787878787878788080808080D9
S1131B50787878787171717171717178788080801A
S1131B6080808787878078787171787878787878BA
S1131B7078787878787878788080808080787878B9
S1131B8078787178787878787878808080808080A8
S1131B9080787878787878787878787871717171D5
S1131BA07878808080808080808078787878787871
S1131BB07178787878788080808080787878787880
S1131BC07878787878787878787878808087878754
S1131BD08780808080808078787878787878787842
S1131BE07880808080807878788080787878787140
S1131BF078787878808080808087878780808078F4
S1131C007878787878787878787880808080787830
S1131C107878787878787878787878787878787840
S1131C2080808080808080808080787878787878E0
S1131C307878787878787878787171787878807826
S1131C4078787878787878787878787880808080F0
S1131C5080807878787878787878787878787880E8
S1131C6080787878787878808080808078787878C0
S1131C7078787878787878808080808080787878B0
S1131C8078787878787878787880807878787178C7
S1131C9078788078787878787878787878787878B8
S1131CA078788080787878787878787878787878A0
S1131CB0787880807878787171787878808078788E
S1131CC07878787878787878717878787878808087
S1131CD07878787878787878787878788080808060
S1131CE07878787878808080808080808080808018
S1131CF07878787878808080808080808080808008
S1131D0080808080808080808080808080808080CF
S1131D1080808080808080808080808080808080BF
S1131D2080808080808080808080808080808080AF
S1131D308080808080808080808080808787878783
S1131D40878780808080808080878080808080807A
S1131D508080808080808080808087878787878755
S1131D60808080808087878787878787808080803E
S1131D70808080808080808080808080808080805F
S1131D80808080808080808080808080808080804F
S1131D90808080808080808080808080808080803F
S1131DA0808080808080808080808080808080802F
S1131DB0808080808080808080808080808080801F
S1131DC0808080808080808080808080808080800F
S1131DD080808080808080808080808080808080FF
S1131DE080808080808080808787878787878787B7
S1131DF087878080808080808080808080808080D1
S1131E0080808080808080808080808787878787AB
S1131E1087878080808080808080808080808080B0
S1131E2080808080808080808080808080808080AE
S1131E30808080808080808080808080808080809E
S1131E4080808080808080808080808078787878AE
S1131E5078787878787878787878787878787878FE
S1131E6078787878787878787878808080808080BE
S1131E7080787878787878787878787878787878D6
S1131E8078787878787878787878787878787880C6
S1131E9080808078787878787878787878787878A6
S1131EA078787878787878787878787878787878AE
S1131EB0787878787878787878787878787878789E
S1131EC07878787878787878787878787878787195
S1131ED071717171717171717171717171787878D9
S1131EE0787878787878787878787878787878786E
S1131EF078787878717171717171717171717171B2
S1131F00717171717171717878787878787878787E
S1131F107878787878787878717171717171717175
S1131F20717178787878787878787878787878783B
S1131F30787878787878787878787878787878781D
S1131F40787878787878787878787878787878780D
S1131F5078787878787878787878787878788080ED
S1131F6078787878808078787878787878787878DD
S1131F7078787878787878787878787878787878DD
S1131F8078787878787878787878787878787878CD
S1131F9078787878787878787878787878787878BD
S1131FA07878787878787878787878787880808095
S1131FB0787878808080807878787878787878787D
S1131FC0787878787878787878787878787878788D
S1131FD0787880808080808080808080808080800D
S1131FE08080808080808080808080787878787815
S1131FF07878787878787880808080808080808015
S113200080808080808080808080808080808080CC
S11320108080808080787878787878787878808004
S113202080808080808080808080808080808080AC
S1132030808080808080808080808080808080809C
S113204080808080787878787880808080808080B4
S1132050808080808080808080808080808080807C
S1132060808080808080808080808080808080806C
S1132070808080808080808080808080808080805C
S11320808080808087878787878080808080808029
S1132090808080808080808080808080808080803C
S11320A0808080808080808080808080808080802C
S11320B08080808080808080808080808080807824
S11320C07878787878787878787878808080808064
S11320D080808080808080808080808080808080FC
S11320E0808078787878787878787878787878785C
S11320F0787878787878787878787878787878785C
S113210080808080808080808080808080807878DB
S1132110787878787878787878787878787878783B
S113212080808080808080808080808080808080AB
S113213080808080808080808080808078787878BB
S113214078787878787880808080808080808080BB
S1132150808080808080808080808080808080807B
S1132160808080808080808080808080808080806B
S1132170808080808080808080808080808080805B
S1132180808080808080808080808080808080804B
S1132190808080808080808080808080808080803B
S11321A0808080808080808080808080808080802B
S11321B08080808080808080808080808078787833
S11321C0808080808080808080808080808080800B
S11321D080808080808080808080808080808080FB
S11321E08080808080807878788080808080787813
S11321F07878787878787878787878787878788053
S113220080808080808080808080808080808080CA
S113221080808080808080808080808080787878D2
S1132220787878787878787878787878787878782A
S113223080808080808080787878808080808080B2
S1132240808080808080808080808080787880809A
S113225078787878788080808080808080808080A2
S1132260808080808080808080808080808080806A
S1132270808080808080808080808080808080805A
S1132280808080808080808080808080808080804A
S1132290808080808080808080808080808080803A
S11322A0808080808080808080808080808080802A
S11322B08080808080808080808080787878787842
S11322C0787878787878787878787878787878788A
S11322D07878787880808078787878787878787862
S11322E0787878787878787878787878787878786A
S11322F0787878787878787878787878787878785A
S11323007878787878787878787878787878787849
S11323107878787878787878787878787878787839
S11323207878787878787878787878787878787829
S11323307878787878787878787878787878787819
S11323407878787878787878787878787878787809
S113235078787878787878787878787878787878F9
S113236078787878787878787878787878787878E9
S113237078787878787878787878787878787878D9
S113238078787878787878787878787878787878C9
S113239078787878787878787878787878787878B9
S11323A078787878787878787878787878787878A9
S11323B07878787878787878787878787878787899
S11323C07878788080808080808078787878787851
S11323D07878787878787878788080787878787869
S11323E078788080808080808080808080808080F9
S11323F08080787878787880808080808080808001
S11324007878787878787880808080808080808000
S113241080808080807878788080808080808080D0
S113242080808080807878787878787880808080E0
S113243080808080787878787880808080808080C0
S11324408080808080808080808080808080808088
S11324508080808080808080808080808080808078
S11324608080808080808080808080808080808068
S11324708080808080808080808080808080808058
S11324808080808080808080808080808080808048
S11324908080808080808080808080808080808038
S11324A08080808080808080808080808080808028
S11324B08080808080808080808080808080808018
S11324C08080808080808080808080808080808008
S11324D080808080808080808080808080808080F8
S11324E080808080808080808080808080808080E8
S11324F080808080808080808080808080808080D8
S113250080808080808080808080808080808080C7
S113251080808080808080808080808080808080B7
S113252080808080807878787878787878787878FF
S11325307878787878787878787878787878787817
S11325407878787878787878787878787878787807
S113255078787878787878787878787878787878F7
S113256078787878787878787878787878787878E7
S113257078787878787878787878787878787878D7
S113258078787878787878787878787878787878C7
S113259078787878787878787878787878787878B7
S11325A08080808080808080808080808080808027
S11325B0808078787878787878787880808080805F
S11325C08080808080808080808080808080808007
S11325D080808080808080808080808080808080F7
S11325E08080787878787878787878787878787857
S11325F07878787880808080808080808080787807
S11326007878787878787878787878787878787846
S11326107878787878787878787878787878787836
S11326207878787878787878787878787878787826
S1132630787878807878787878787878787878780E
S11326407878787878787878787878787878787806
S113265078787878808080807878787880808080B6
S113266080807878787878787878787878787878D6
S113267078787878787878787878787878787878D6
S113268078787878787878787878787878787878C6
S113269078787878787878787878787878787878B6
S11326A078787878787878787878787878787878A6
S11326B07878787878787878787878788080787886
S11326C07878787878787878787878787878787886
S11326D07878787878787878787878787878787876
S11326E07878787878787878787878787878787866
S11326F078787878808080808080808080808080F6
S113270080808080808080808080808080808080C5
S113271080808080808080808080808080787878CD
S1132720787878787878807878787878787878781D
S11327307878787878787878787878787878787815
S11327407878787878787878787878787878787805
S113275078787878787878787878787878787878F5
S113276078787878787878787878787878787878E5
S113277078787878787878787878787878787878D5
S113278078787878787878787878787878787878C5
S113279078787878787878787878787878787878B5
S11327A078787878787878787878787878787878A5
S11327B07878787878808080807878787878787875
S11327C0788080808080808080808080808078781D
S11327D0787878808080808080808080808080800D
S11327E080808080808080808080808080808080E5
S11327F080808080808080808080808080808080D5
S11328008080787878787878787878787878787834
S113281078808080808080808080808080808080BC
S113282080808080808080808080808080808080A4
S11328308080808080808080808080808080808094
S11328408080808080808080808080808080808084
S11328508080808080808080808080808080808074
S11328608080808080808080808080808080808064
S11328708080808080808080808080808080808054
S11328808080808080808080808080808080808044
S11328908080808080808080808080808080808034
S11328A08080808080808080808080808080808024
S11328B08080808080808080808080808080808014
S11328C08080808080808080808080808080808004
S11328D080808080808080808080808080808080F4
S11328E080808080808080808080808080808080E4
S11328F080808080808080808080808080808080D4
S113290080808080808080808080808080808080C3
S113291080808080808080808080808080808080B3
S113292080808080808080808080808080808080A3
S11329308080808080808080808080808080808093
S113294080808080808080807878787878787878C3
S113295078787878787878787878787878787878F3
S113296078787878787878787878787878787878E3
S113297078787878787878787878787878787878D3
S113298078787878787878787878787878787878C3
S113299078787878787878787878787878787878B3
S11329A078787878787878787878787878787878A3
S11329B07878787878787878787878787878787893
S11329C07878787878787878787878787878787883
S11329D07878787878787878787878787878787873
S11329E07878787878787878787878787878787863
S11329F07878787878787878787878787878787853
S1132A007878787878787878787878787878787842
S1132A107878787878787878787878787878787832
S1132A207878787878787878787878787878787822
S1132A307878787878787878787878787878787812
S1132A407878787878787878787878787878787802
S1132A5078787878787878787878787878787878F2
S1132A6078787878787878787878787878787878E2
S1132A7078787878787878787878787878787878D2
S1132A8078787878787878787878787878787878C2
S1132A9078787878787878787878787878787878B2
S1132AA078787878787878787878787878787878A2
S1132AB07878787878787878787878787878787892
S1132AC07878787878787878808080808080808042
S1132AD080808080808080808080808080808080F2
S1132AE080808080808080808080808080808080E2
S1132AF080808080808080808080808080808080D2
S1132B0080808080808080808080808080808080C1
S1132B1080808080808080808080808080808080B1
S1132B2080808080808080808080808080808080A1
S1132B308080808080808080808080808080808091
S1132B408080808080808080808080808080808081
S1132B508080808080808080808080808080808071
S1132B6080808080808080787878787878788078A1
S1132B707878787878808080808080808080808079
S1132B808080808080808080807878787878788071
S1132B908080808080808080808080808080808031
S1132BA08080808080808080808080808080808021
S1132BB08080808080808080808080808080808011
S1132BC08080808078808080808080808080808009
S1132BD08080808080808080808080808078787809
S1132BE07878787878808080808080808080808009
S1132BF080808080808080808080808080808080D1
S1132C0080808080808080808080808080808080C0
S1132C1080808080808080808080808080808080B0
S1132C2080808080808080808080808080808080A0
S1132C308080808080808080808080808080808090
S1132C408080808080808080808080808080808080
S1132C508080808080808080808080807878787890
S1132C6078787878788080808078807878787878B8
S1132C7078787878787878787878787878787878D0
S1132C8078787878787878787878787878787878C0
S1132C9078787878787878787878787878787878B0
S1132CA078787878787878787878787878787878A0
S1132CB07878787878787878787878787878787890
S1132CC07878787880808080808080808080808020
S1132CD08080808080787878787878787878808038
S1132CE080808080808080808080808080808080E0
S1132CF080808080808080808080808080808080D0
S1132D0080808080808080808080808080808080BF
S1132D1080808080808080808080808080808080AF
S1132D20808080808080808080808080808080809F
S1132D30808080808080808080808080808080808F
S1132D40808080808080808080808080808080807F
S1132D50808080808080808080808080808080806F
S1132D60808080808080808080808080808080805F
S1132D70808080808080808080808080808080804F
S1132D80808080808080808080808080808080803F
S1132D90808080808080808080808080808080802F
S1132DA08080808080808080807878787878787857
S1132DB0787878787878787878787878787878788F
S1132DC07878807878787878787878788080808057
S1132DD08080807878787878787878787878787857
S1132DE0787878787878787878787878787878785F
S1132DF0787878787878787878787878787878784F
S1132E00787878787878787878787878787878783E
S1132E10787878787878787878787878787878782E
S1132E20787878787878787878787878787878781E
S1132E30787878787878787878787878787878780E
S1132E4078787878787878787878787878787878FE
S1132E5078787878787878787878787878787878EE
S1132E6078787878787878787878787878787878DE
S1132E7078787878787878787878787878787878CE
S1132E8078787878787878787878787878787878BE
S1132E9078787878787878787878787878787878AE
S1132EA0787878787878787878787878787878789E
S1132EB0787878787878787878787878787878788E
S1132EC0787878787878787878787878787878787E
S1132ED0787878787880788080808080808080801E
S1132EE0787878787878787878787878787878785E
S1132EF07878787878787880808080808080808006
S1132F0080808080808080808080808080808080BD
S1132F1080808080808080808080808080808080AD
S1132F20808080808080808080808080808080809D
S1132F30808080808080808080808080808080808D
S1132F40808080808080808080808080808080807D
S1132F50808080808080808080808080808080806D
S1132F60808080808080808080808080808080805D
S1132F70808080808080808080808080808080804D
S1132F80808080808080808080808080808080803D
S1132F90808080808080808080808080808080802D
S1132FA0808080808080808080808080808080801D
S1132FB0808080808080808080808080808080800D
S1132FC080808080808080808080808080808080FD
S1132FD080808080808080808080808080808080ED
S1132FE080808080808080807878787880808080FD
S1132FF080808080808080808080808080808080CD
S11330008080807878787878787878787878787824
S113301078787878787878787878808080808080FC
S113302080808080808080808078787878787878D4
S113303078787880808080808078788080808080B4
S113304080808080808080808080807878787878A4
S113305078787878787878787878787878787878EC
S1133060787878787878808080808080808080808C
S1133070808080787880808080808080787878787C
S113308078787878787878787878787878787878BC
S113309078787878787878787878787878787878AC
S11330A0787878787878787878787878787878789C
S11330B0787878787878787878787878787878788C
S11330C0787878787878787878787878787878787C
S11330D0787878787878787878787878787878786C
S11330E0787878787878787878787878787878785C
S11330F0787878787878787878787878787878784C
S113310078787878787880808080808080808080EB
S113311080808080808080808080808080808080AB
S113312080787878787878807880808080808078DB
S113313078787880807880808080808080808080AB
S113314080808078788078787880808080808080A3
S1133150808080808080808080808080808080806B
S1133160808080808080808080808080808080805B
S1133170808080808080808080808080808080804B
S1133180808080808080808080808080808080803B
S1133190808080808080808080808080808080802B
S11331A0808080808080808080808080808080801B
S11331B0808080808080808080808080808080800B
S11331C080808080808080808080808080808080FB
S11331D080808080808080808080808080808080EB
S11331E080808080808080808080808080808080DB
S11331F080808080808080808080808080808080CB
S113320080808080808080808080808080808080BA
S113321080808080808080808080808080787878C2
S1133220787878787878787878787878787878781A
S1133230787878787878787878787878787878780A
S113324078787878787878787878787878787878FA
S113325078787878787878787878787878787878EA
S113326078787878787878787878787878787878DA
S113327078787878787878787878787878787878CA
S113328078787878787878787878787878787878BA
S113329078787878787878787878787878787878AA
S11332A0787878787878787878787878787878789A
S11332B0787878787878787878787878787878788A
S11332C0787878787878787878787878787878787A
S11332D0787878787878787878787878787878786A
S11332E0787878787878787878787878787878785A
S11332F07878787880787878787878787878787842
S113330078787880808078787880787880808080F9
S113331080808080808080808080808080808080A9
S113332080808078807878808078787880807880D1
S11333308080808080808078808080808080808091
S11333408080808080808080808080808080808079
S11333508080808080808080808080808080808069
S11333608080808080808080808080808080808059
S11333708080808080808080808080808080808049
S11333808080808080808080808080808080808039
S11333908080808080808080808080808080808029
S11333A08080808080808080808080808080808019
S11333B08080808080808080808080808080808009
S11333C080808080808080808080808080808080F9
S11333D080808080808080808080808080808080E9
S11333E080808080808080808080808080808080D9
S11333F080808080808080808080808080808080C9
S113340080808080808080808080808080808080B8
S113341080808080808080808080808080808080A8
S11334208080808080808080808080808080808098
S11334308080808080808080808080808080808088
S11334408080808080808080808080808080808078
S11334508080808080808080808080808080808068
S11334608080808080808080808080808080808058
S11334708080808080808080808080808080808048
S11334808080808080808080808080808080808038
S11334908080807878807878787878787878787888
S11334A07878787878787878787878787878787898
S11334B08078788078788078787878787878787870
S11334C07878788078787878787878787878787870
S11334D07878787878787878787878787878788060
S11334E080788080808080808080808080808080E0
S11334F080808080808080808080808080808080C8
S113350080808080808080808080808080808080B7
S113351080808080808080808080808080808080A7
S11335208080808080808080808080808080808097
S11339B080808080808080808080800011241FBE71
S11339C0CFEFD8E0DEBFCDBF0E94091D0C94351D9A
S11339D00C94000084B18C6284B92A9A8CB58160FD
S11339E08CBD8CB580618CBD8CB580648CBD089514
S11339F0982F92959F7090638295807F2A989EBDA0
S1133A000DB407FEFDCF8EBD0DB407FEFDCF2A9A7F
S1133A10089584B18C6284B92A9A8CB581608CBD76
S1133A208CB580618CBD8CB580648CBDE8E6F0E01B
S1133A308491982F92959F7090638295807F2A98A5
S1133A409EBD0DB407FEFDCF8EBD0DB407FEFDCFA8
S1133A502A9A83EF91E00197F1F700C000003196B4
S1113A6099E3EB3BF90721F7E1CFF894FFCF90
S9030000FC
